{
  "contractName": "NFT",
  "abi": [
    {
      "inputs": [
        {
          "internalType": "address",
          "name": "marketplaceAddress",
          "type": "address"
        }
      ],
      "stateMutability": "nonpayable",
      "type": "constructor"
    },
    {
      "anonymous": false,
      "inputs": [
        {
          "indexed": true,
          "internalType": "address",
          "name": "owner",
          "type": "address"
        },
        {
          "indexed": true,
          "internalType": "address",
          "name": "approved",
          "type": "address"
        },
        {
          "indexed": true,
          "internalType": "uint256",
          "name": "tokenId",
          "type": "uint256"
        }
      ],
      "name": "Approval",
      "type": "event"
    },
    {
      "anonymous": false,
      "inputs": [
        {
          "indexed": true,
          "internalType": "address",
          "name": "owner",
          "type": "address"
        },
        {
          "indexed": true,
          "internalType": "address",
          "name": "operator",
          "type": "address"
        },
        {
          "indexed": false,
          "internalType": "bool",
          "name": "approved",
          "type": "bool"
        }
      ],
      "name": "ApprovalForAll",
      "type": "event"
    },
    {
      "anonymous": false,
      "inputs": [
        {
          "indexed": true,
          "internalType": "address",
          "name": "from",
          "type": "address"
        },
        {
          "indexed": true,
          "internalType": "address",
          "name": "to",
          "type": "address"
        },
        {
          "indexed": true,
          "internalType": "uint256",
          "name": "tokenId",
          "type": "uint256"
        }
      ],
      "name": "Transfer",
      "type": "event"
    },
    {
      "anonymous": false,
      "inputs": [
        {
          "indexed": false,
          "internalType": "uint256",
          "name": "id",
          "type": "uint256"
        },
        {
          "indexed": false,
          "internalType": "address",
          "name": "owner",
          "type": "address"
        },
        {
          "indexed": false,
          "internalType": "string",
          "name": "propertycontractId",
          "type": "string"
        }
      ],
      "name": "propertyCreated",
      "type": "event"
    },
    {
      "inputs": [
        {
          "internalType": "address",
          "name": "to",
          "type": "address"
        },
        {
          "internalType": "uint256",
          "name": "tokenId",
          "type": "uint256"
        }
      ],
      "name": "approve",
      "outputs": [],
      "stateMutability": "nonpayable",
      "type": "function"
    },
    {
      "inputs": [
        {
          "internalType": "address",
          "name": "owner",
          "type": "address"
        }
      ],
      "name": "balanceOf",
      "outputs": [
        {
          "internalType": "uint256",
          "name": "",
          "type": "uint256"
        }
      ],
      "stateMutability": "view",
      "type": "function",
      "constant": true
    },
    {
      "inputs": [
        {
          "internalType": "uint256",
          "name": "tokenId",
          "type": "uint256"
        }
      ],
      "name": "getApproved",
      "outputs": [
        {
          "internalType": "address",
          "name": "",
          "type": "address"
        }
      ],
      "stateMutability": "view",
      "type": "function",
      "constant": true
    },
    {
      "inputs": [
        {
          "internalType": "address",
          "name": "owner",
          "type": "address"
        },
        {
          "internalType": "address",
          "name": "operator",
          "type": "address"
        }
      ],
      "name": "isApprovedForAll",
      "outputs": [
        {
          "internalType": "bool",
          "name": "",
          "type": "bool"
        }
      ],
      "stateMutability": "view",
      "type": "function",
      "constant": true
    },
    {
      "inputs": [],
      "name": "name",
      "outputs": [
        {
          "internalType": "string",
          "name": "",
          "type": "string"
        }
      ],
      "stateMutability": "view",
      "type": "function",
      "constant": true
    },
    {
      "inputs": [
        {
          "internalType": "uint256",
          "name": "tokenId",
          "type": "uint256"
        }
      ],
      "name": "ownerOf",
      "outputs": [
        {
          "internalType": "address",
          "name": "",
          "type": "address"
        }
      ],
      "stateMutability": "view",
      "type": "function",
      "constant": true
    },
    {
      "inputs": [
        {
          "internalType": "address",
          "name": "from",
          "type": "address"
        },
        {
          "internalType": "address",
          "name": "to",
          "type": "address"
        },
        {
          "internalType": "uint256",
          "name": "tokenId",
          "type": "uint256"
        }
      ],
      "name": "safeTransferFrom",
      "outputs": [],
      "stateMutability": "nonpayable",
      "type": "function"
    },
    {
      "inputs": [
        {
          "internalType": "address",
          "name": "from",
          "type": "address"
        },
        {
          "internalType": "address",
          "name": "to",
          "type": "address"
        },
        {
          "internalType": "uint256",
          "name": "tokenId",
          "type": "uint256"
        },
        {
          "internalType": "bytes",
          "name": "_data",
          "type": "bytes"
        }
      ],
      "name": "safeTransferFrom",
      "outputs": [],
      "stateMutability": "nonpayable",
      "type": "function"
    },
    {
      "inputs": [
        {
          "internalType": "address",
          "name": "operator",
          "type": "address"
        },
        {
          "internalType": "bool",
          "name": "approved",
          "type": "bool"
        }
      ],
      "name": "setApprovalForAll",
      "outputs": [],
      "stateMutability": "nonpayable",
      "type": "function"
    },
    {
      "inputs": [
        {
          "internalType": "bytes4",
          "name": "interfaceId",
          "type": "bytes4"
        }
      ],
      "name": "supportsInterface",
      "outputs": [
        {
          "internalType": "bool",
          "name": "",
          "type": "bool"
        }
      ],
      "stateMutability": "view",
      "type": "function",
      "constant": true
    },
    {
      "inputs": [],
      "name": "symbol",
      "outputs": [
        {
          "internalType": "string",
          "name": "",
          "type": "string"
        }
      ],
      "stateMutability": "view",
      "type": "function",
      "constant": true
    },
    {
      "inputs": [
        {
          "internalType": "uint256",
          "name": "tokenId",
          "type": "uint256"
        }
      ],
      "name": "tokenURI",
      "outputs": [
        {
          "internalType": "string",
          "name": "",
          "type": "string"
        }
      ],
      "stateMutability": "view",
      "type": "function",
      "constant": true
    },
    {
      "inputs": [
        {
          "internalType": "address",
          "name": "from",
          "type": "address"
        },
        {
          "internalType": "address",
          "name": "to",
          "type": "address"
        },
        {
          "internalType": "uint256",
          "name": "tokenId",
          "type": "uint256"
        }
      ],
      "name": "transferFrom",
      "outputs": [],
      "stateMutability": "nonpayable",
      "type": "function"
    },
    {
      "inputs": [
        {
          "internalType": "address",
          "name": "_owner",
          "type": "address"
        },
        {
          "internalType": "string",
          "name": "_propertycontractId",
          "type": "string"
        }
      ],
      "name": "createProprety",
      "outputs": [
        {
          "internalType": "uint256",
          "name": "",
          "type": "uint256"
        }
      ],
      "stateMutability": "nonpayable",
      "type": "function"
    }
  ],
  "bytecode": "0x60806040523480156200001157600080fd5b5060405162002e2938038062002e29833981810160405281019062000037919062000239565b6040518060400160405280600981526020017f4d657461766572736500000000000000000000000000000000000000000000008152506040518060400160405280600481526020017f4d455454000000000000000000000000000000000000000000000000000000008152508160009080519060200190620000bb9291906200011f565b508060019080519060200190620000d49291906200011f565b50505080600760006101000a81548173ffffffffffffffffffffffffffffffffffffffff021916908373ffffffffffffffffffffffffffffffffffffffff16021790555050620002d0565b8280546200012d906200029a565b90600052602060002090601f0160209004810192826200015157600085556200019d565b82601f106200016c57805160ff19168380011785556200019d565b828001600101855582156200019d579182015b828111156200019c5782518255916020019190600101906200017f565b5b509050620001ac9190620001b0565b5090565b5b80821115620001cb576000816000905550600101620001b1565b5090565b600080fd5b600073ffffffffffffffffffffffffffffffffffffffff82169050919050565b60006200020182620001d4565b9050919050565b6200021381620001f4565b81146200021f57600080fd5b50565b600081519050620002338162000208565b92915050565b600060208284031215620002525762000251620001cf565b5b6000620002628482850162000222565b91505092915050565b7f4e487b7100000000000000000000000000000000000000000000000000000000600052602260045260246000fd5b60006002820490506001821680620002b357607f821691505b60208210811415620002ca57620002c96200026b565b5b50919050565b612b4980620002e06000396000f3fe608060405234801561001057600080fd5b50600436106100ea5760003560e01c80636352211e1161008c578063a22cb46511610066578063a22cb4651461026f578063b88d4fde1461028b578063c87b56dd146102a7578063e985e9c5146102d7576100ea565b80636352211e146101f157806370a082311461022157806395d89b4114610251576100ea565b8063095ea7b3116100c8578063095ea7b31461016d57806323b872dd146101895780632cc4eddf146101a557806342842e0e146101d5576100ea565b806301ffc9a7146100ef57806306fdde031461011f578063081812fc1461013d575b600080fd5b610109600480360381019061010491906118e8565b610307565b6040516101169190611930565b60405180910390f35b6101276103e9565b60405161013491906119e4565b60405180910390f35b61015760048036038101906101529190611a3c565b61047b565b6040516101649190611aaa565b60405180910390f35b61018760048036038101906101829190611af1565b610500565b005b6101a3600480360381019061019e9190611b31565b610618565b005b6101bf60048036038101906101ba9190611cb9565b610678565b6040516101cc9190611d24565b60405180910390f35b6101ef60048036038101906101ea9190611b31565b610866565b005b61020b60048036038101906102069190611a3c565b610886565b6040516102189190611aaa565b60405180910390f35b61023b60048036038101906102369190611d3f565b610938565b6040516102489190611d24565b60405180910390f35b6102596109f0565b60405161026691906119e4565b60405180910390f35b61028960048036038101906102849190611d98565b610a82565b005b6102a560048036038101906102a09190611e79565b610a98565b005b6102c160048036038101906102bc9190611a3c565b610afa565b6040516102ce91906119e4565b60405180910390f35b6102f160048036038101906102ec9190611efc565b610ba1565b6040516102fe9190611930565b60405180910390f35b60007f80ac58cd000000000000000000000000000000000000000000000000000000007bffffffffffffffffffffffffffffffffffffffffffffffffffffffff1916827bffffffffffffffffffffffffffffffffffffffffffffffffffffffff191614806103d257507f5b5e139f000000000000000000000000000000000000000000000000000000007bffffffffffffffffffffffffffffffffffffffffffffffffffffffff1916827bffffffffffffffffffffffffffffffffffffffffffffffffffffffff1916145b806103e257506103e182610c35565b5b9050919050565b6060600080546103f890611f6b565b80601f016020809104026020016040519081016040528092919081815260200182805461042490611f6b565b80156104715780601f1061044657610100808354040283529160200191610471565b820191906000526020600020905b81548152906001019060200180831161045457829003601f168201915b5050505050905090565b600061048682610c9f565b6104c5576040517f08c379a00000000000000000000000000000000000000000000000000000000081526004016104bc9061200f565b60405180910390fd5b6004600083815260200190815260200160002060009054906101000a900473ffffffffffffffffffffffffffffffffffffffff169050919050565b600061050b82610886565b90508073ffffffffffffffffffffffffffffffffffffffff168373ffffffffffffffffffffffffffffffffffffffff16141561057c576040517f08c379a0000000000000000000000000000000000000000000000000000000008152600401610573906120a1565b60405180910390fd5b8073ffffffffffffffffffffffffffffffffffffffff1661059b610d0b565b73ffffffffffffffffffffffffffffffffffffffff1614806105ca57506105c9816105c4610d0b565b610ba1565b5b610609576040517f08c379a000000000000000000000000000000000000000000000000000000000815260040161060090612133565b60405180910390fd5b6106138383610d13565b505050565b610629610623610d0b565b82610dcc565b610668576040517f08c379a000000000000000000000000000000000000000000000000000000000815260040161065f906121c5565b60405180910390fd5b610673838383610eaa565b505050565b600060088260405161068a9190612221565b908152602001604051809103902060009054906101000a900460ff16156106e6576040517f08c379a00000000000000000000000000000000000000000000000000000000081526004016106dd906122aa565b60405180910390fd5b6106f06006611106565b60006106fc600661111c565b905060405180606001604052808281526020018573ffffffffffffffffffffffffffffffffffffffff16815260200184815250600960008381526020019081526020016000206000820151816000015560208201518160010160006101000a81548173ffffffffffffffffffffffffffffffffffffffff021916908373ffffffffffffffffffffffffffffffffffffffff16021790555060408201518160020190805190602001906107af9291906117d9565b509050506107bd338261112a565b60016008846040516107cf9190612221565b908152602001604051809103902060006101000a81548160ff021916908315150217905550610821600760009054906101000a900473ffffffffffffffffffffffffffffffffffffffff166001610a82565b7f38bb9b4e70c2e35f2da4f6b4cb263e18ede8ca7dd7cffb4c990559a011228aaa818585604051610854939291906122ca565b60405180910390a18091505092915050565b61088183838360405180602001604052806000815250610a98565b505050565b6000806002600084815260200190815260200160002060009054906101000a900473ffffffffffffffffffffffffffffffffffffffff169050600073ffffffffffffffffffffffffffffffffffffffff168173ffffffffffffffffffffffffffffffffffffffff16141561092f576040517f08c379a00000000000000000000000000000000000000000000000000000000081526004016109269061237a565b60405180910390fd5b80915050919050565b60008073ffffffffffffffffffffffffffffffffffffffff168273ffffffffffffffffffffffffffffffffffffffff1614156109a9576040517f08c379a00000000000000000000000000000000000000000000000000000000081526004016109a09061240c565b60405180910390fd5b600360008373ffffffffffffffffffffffffffffffffffffffff1673ffffffffffffffffffffffffffffffffffffffff168152602001908152602001600020549050919050565b6060600180546109ff90611f6b565b80601f0160208091040260200160405190810160405280929190818152602001828054610a2b90611f6b565b8015610a785780601f10610a4d57610100808354040283529160200191610a78565b820191906000526020600020905b815481529060010190602001808311610a5b57829003601f168201915b5050505050905090565b610a94610a8d610d0b565b83836112f8565b5050565b610aa9610aa3610d0b565b83610dcc565b610ae8576040517f08c379a0000000000000000000000000000000000000000000000000000000008152600401610adf906121c5565b60405180910390fd5b610af484848484611465565b50505050565b6060610b0582610c9f565b610b44576040517f08c379a0000000000000000000000000000000000000000000000000000000008152600401610b3b9061249e565b60405180910390fd5b6000610b4e6114c1565b90506000815111610b6e5760405180602001604052806000815250610b99565b80610b78846114d8565b604051602001610b899291906124be565b6040516020818303038152906040525b915050919050565b6000600560008473ffffffffffffffffffffffffffffffffffffffff1673ffffffffffffffffffffffffffffffffffffffff16815260200190815260200160002060008373ffffffffffffffffffffffffffffffffffffffff1673ffffffffffffffffffffffffffffffffffffffff16815260200190815260200160002060009054906101000a900460ff16905092915050565b60007f01ffc9a7000000000000000000000000000000000000000000000000000000007bffffffffffffffffffffffffffffffffffffffffffffffffffffffff1916827bffffffffffffffffffffffffffffffffffffffffffffffffffffffff1916149050919050565b60008073ffffffffffffffffffffffffffffffffffffffff166002600084815260200190815260200160002060009054906101000a900473ffffffffffffffffffffffffffffffffffffffff1673ffffffffffffffffffffffffffffffffffffffff1614159050919050565b600033905090565b816004600083815260200190815260200160002060006101000a81548173ffffffffffffffffffffffffffffffffffffffff021916908373ffffffffffffffffffffffffffffffffffffffff160217905550808273ffffffffffffffffffffffffffffffffffffffff16610d8683610886565b73ffffffffffffffffffffffffffffffffffffffff167f8c5be1e5ebec7d5bd14f71427d1e84f3dd0314c0f7b2291e5b200ac8c7c3b92560405160405180910390a45050565b6000610dd782610c9f565b610e16576040517f08c379a0000000000000000000000000000000000000000000000000000000008152600401610e0d90612554565b60405180910390fd5b6000610e2183610886565b90508073ffffffffffffffffffffffffffffffffffffffff168473ffffffffffffffffffffffffffffffffffffffff161480610e9057508373ffffffffffffffffffffffffffffffffffffffff16610e788461047b565b73ffffffffffffffffffffffffffffffffffffffff16145b80610ea15750610ea08185610ba1565b5b91505092915050565b8273ffffffffffffffffffffffffffffffffffffffff16610eca82610886565b73ffffffffffffffffffffffffffffffffffffffff1614610f20576040517f08c379a0000000000000000000000000000000000000000000000000000000008152600401610f17906125e6565b60405180910390fd5b600073ffffffffffffffffffffffffffffffffffffffff168273ffffffffffffffffffffffffffffffffffffffff161415610f90576040517f08c379a0000000000000000000000000000000000000000000000000000000008152600401610f8790612678565b60405180910390fd5b610f9b838383611639565b610fa6600082610d13565b6001600360008573ffffffffffffffffffffffffffffffffffffffff1673ffffffffffffffffffffffffffffffffffffffff1681526020019081526020016000206000828254610ff691906126c7565b925050819055506001600360008473ffffffffffffffffffffffffffffffffffffffff1673ffffffffffffffffffffffffffffffffffffffff168152602001908152602001600020600082825461104d91906126fb565b92505081905550816002600083815260200190815260200160002060006101000a81548173ffffffffffffffffffffffffffffffffffffffff021916908373ffffffffffffffffffffffffffffffffffffffff160217905550808273ffffffffffffffffffffffffffffffffffffffff168473ffffffffffffffffffffffffffffffffffffffff167fddf252ad1be2c89b69c2b068fc378daa952ba7f163c4a11628f55a4df523b3ef60405160405180910390a4505050565b6001816000016000828254019250508190555050565b600081600001549050919050565b600073ffffffffffffffffffffffffffffffffffffffff168273ffffffffffffffffffffffffffffffffffffffff16141561119a576040517f08c379a00000000000000000000000000000000000000000000000000000000081526004016111919061279d565b60405180910390fd5b6111a381610c9f565b156111e3576040517f08c379a00000000000000000000000000000000000000000000000000000000081526004016111da90612809565b60405180910390fd5b6111ef60008383611639565b6001600360008473ffffffffffffffffffffffffffffffffffffffff1673ffffffffffffffffffffffffffffffffffffffff168152602001908152602001600020600082825461123f91906126fb565b92505081905550816002600083815260200190815260200160002060006101000a81548173ffffffffffffffffffffffffffffffffffffffff021916908373ffffffffffffffffffffffffffffffffffffffff160217905550808273ffffffffffffffffffffffffffffffffffffffff16600073ffffffffffffffffffffffffffffffffffffffff167fddf252ad1be2c89b69c2b068fc378daa952ba7f163c4a11628f55a4df523b3ef60405160405180910390a45050565b8173ffffffffffffffffffffffffffffffffffffffff168373ffffffffffffffffffffffffffffffffffffffff161415611367576040517f08c379a000000000000000000000000000000000000000000000000000000000815260040161135e90612875565b60405180910390fd5b80600560008573ffffffffffffffffffffffffffffffffffffffff1673ffffffffffffffffffffffffffffffffffffffff16815260200190815260200160002060008473ffffffffffffffffffffffffffffffffffffffff1673ffffffffffffffffffffffffffffffffffffffff16815260200190815260200160002060006101000a81548160ff0219169083151502179055508173ffffffffffffffffffffffffffffffffffffffff168373ffffffffffffffffffffffffffffffffffffffff167f17307eab39ab6107e8899845ad3d59bd9653f200f220920489ca2b5937696c31836040516114589190611930565b60405180910390a3505050565b611470848484610eaa565b61147c8484848461163e565b6114bb576040517f08c379a00000000000000000000000000000000000000000000000000000000081526004016114b290612907565b60405180910390fd5b50505050565b606060405180602001604052806000815250905090565b60606000821415611520576040518060400160405280600181526020017f30000000000000000000000000000000000000000000000000000000000000008152509050611634565b600082905060005b6000821461155257808061153b90612927565b915050600a8261154b919061299f565b9150611528565b60008167ffffffffffffffff81111561156e5761156d611b8e565b5b6040519080825280601f01601f1916602001820160405280156115a05781602001600182028036833780820191505090505b5090505b6000851461162d576001826115b991906126c7565b9150600a856115c891906129d0565b60306115d491906126fb565b60f81b8183815181106115ea576115e9612a01565b5b60200101907effffffffffffffffffffffffffffffffffffffffffffffffffffffffffffff1916908160001a905350600a85611626919061299f565b94506115a4565b8093505050505b919050565b505050565b600061165f8473ffffffffffffffffffffffffffffffffffffffff166117c6565b156117b9578373ffffffffffffffffffffffffffffffffffffffff1663150b7a02611688610d0b565b8786866040518563ffffffff1660e01b81526004016116aa9493929190612a85565b6020604051808303816000875af19250505080156116e657506040513d601f19601f820116820180604052508101906116e39190612ae6565b60015b611769573d8060008114611716576040519150601f19603f3d011682016040523d82523d6000602084013e61171b565b606091505b50600081511415611761576040517f08c379a000000000000000000000000000000000000000000000000000000000815260040161175890612907565b60405180910390fd5b805181602001fd5b63150b7a0260e01b7bffffffffffffffffffffffffffffffffffffffffffffffffffffffff1916817bffffffffffffffffffffffffffffffffffffffffffffffffffffffff1916149150506117be565b600190505b949350505050565b600080823b905060008111915050919050565b8280546117e590611f6b565b90600052602060002090601f016020900481019282611807576000855561184e565b82601f1061182057805160ff191683800117855561184e565b8280016001018555821561184e579182015b8281111561184d578251825591602001919060010190611832565b5b50905061185b919061185f565b5090565b5b80821115611878576000816000905550600101611860565b5090565b6000604051905090565b600080fd5b600080fd5b60007fffffffff0000000000000000000000000000000000000000000000000000000082169050919050565b6118c581611890565b81146118d057600080fd5b50565b6000813590506118e2816118bc565b92915050565b6000602082840312156118fe576118fd611886565b5b600061190c848285016118d3565b91505092915050565b60008115159050919050565b61192a81611915565b82525050565b60006020820190506119456000830184611921565b92915050565b600081519050919050565b600082825260208201905092915050565b60005b8381101561198557808201518184015260208101905061196a565b83811115611994576000848401525b50505050565b6000601f19601f8301169050919050565b60006119b68261194b565b6119c08185611956565b93506119d0818560208601611967565b6119d98161199a565b840191505092915050565b600060208201905081810360008301526119fe81846119ab565b905092915050565b6000819050919050565b611a1981611a06565b8114611a2457600080fd5b50565b600081359050611a3681611a10565b92915050565b600060208284031215611a5257611a51611886565b5b6000611a6084828501611a27565b91505092915050565b600073ffffffffffffffffffffffffffffffffffffffff82169050919050565b6000611a9482611a69565b9050919050565b611aa481611a89565b82525050565b6000602082019050611abf6000830184611a9b565b92915050565b611ace81611a89565b8114611ad957600080fd5b50565b600081359050611aeb81611ac5565b92915050565b60008060408385031215611b0857611b07611886565b5b6000611b1685828601611adc565b9250506020611b2785828601611a27565b9150509250929050565b600080600060608486031215611b4a57611b49611886565b5b6000611b5886828701611adc565b9350506020611b6986828701611adc565b9250506040611b7a86828701611a27565b9150509250925092565b600080fd5b600080fd5b7f4e487b7100000000000000000000000000000000000000000000000000000000600052604160045260246000fd5b611bc68261199a565b810181811067ffffffffffffffff82111715611be557611be4611b8e565b5b80604052505050565b6000611bf861187c565b9050611c048282611bbd565b919050565b600067ffffffffffffffff821115611c2457611c23611b8e565b5b611c2d8261199a565b9050602081019050919050565b82818337600083830152505050565b6000611c5c611c5784611c09565b611bee565b905082815260208101848484011115611c7857611c77611b89565b5b611c83848285611c3a565b509392505050565b600082601f830112611ca057611c9f611b84565b5b8135611cb0848260208601611c49565b91505092915050565b60008060408385031215611cd057611ccf611886565b5b6000611cde85828601611adc565b925050602083013567ffffffffffffffff811115611cff57611cfe61188b565b5b611d0b85828601611c8b565b9150509250929050565b611d1e81611a06565b82525050565b6000602082019050611d396000830184611d15565b92915050565b600060208284031215611d5557611d54611886565b5b6000611d6384828501611adc565b91505092915050565b611d7581611915565b8114611d8057600080fd5b50565b600081359050611d9281611d6c565b92915050565b60008060408385031215611daf57611dae611886565b5b6000611dbd85828601611adc565b9250506020611dce85828601611d83565b9150509250929050565b600067ffffffffffffffff821115611df357611df2611b8e565b5b611dfc8261199a565b9050602081019050919050565b6000611e1c611e1784611dd8565b611bee565b905082815260208101848484011115611e3857611e37611b89565b5b611e43848285611c3a565b509392505050565b600082601f830112611e6057611e5f611b84565b5b8135611e70848260208601611e09565b91505092915050565b60008060008060808587031215611e9357611e92611886565b5b6000611ea187828801611adc565b9450506020611eb287828801611adc565b9350506040611ec387828801611a27565b925050606085013567ffffffffffffffff811115611ee457611ee361188b565b5b611ef087828801611e4b565b91505092959194509250565b60008060408385031215611f1357611f12611886565b5b6000611f2185828601611adc565b9250506020611f3285828601611adc565b9150509250929050565b7f4e487b7100000000000000000000000000000000000000000000000000000000600052602260045260246000fd5b60006002820490506001821680611f8357607f821691505b60208210811415611f9757611f96611f3c565b5b50919050565b7f4552433732313a20617070726f76656420717565727920666f72206e6f6e657860008201527f697374656e7420746f6b656e0000000000000000000000000000000000000000602082015250565b6000611ff9602c83611956565b915061200482611f9d565b604082019050919050565b6000602082019050818103600083015261202881611fec565b9050919050565b7f4552433732313a20617070726f76616c20746f2063757272656e74206f776e6560008201527f7200000000000000000000000000000000000000000000000000000000000000602082015250565b600061208b602183611956565b91506120968261202f565b604082019050919050565b600060208201905081810360008301526120ba8161207e565b9050919050565b7f4552433732313a20617070726f76652063616c6c6572206973206e6f74206f7760008201527f6e6572206e6f7220617070726f76656420666f7220616c6c0000000000000000602082015250565b600061211d603883611956565b9150612128826120c1565b604082019050919050565b6000602082019050818103600083015261214c81612110565b9050919050565b7f4552433732313a207472616e736665722063616c6c6572206973206e6f74206f60008201527f776e6572206e6f7220617070726f766564000000000000000000000000000000602082015250565b60006121af603183611956565b91506121ba82612153565b604082019050919050565b600060208201905081810360008301526121de816121a2565b9050919050565b600081905092915050565b60006121fb8261194b565b61220581856121e5565b9350612215818560208601611967565b80840191505092915050565b600061222d82846121f0565b915081905092915050565b7f5468652070726f706572747920636f6e747261637420496420616c726561647960008201527f204578697374652c206974206d75737420626520756e69717565000000000000602082015250565b6000612294603a83611956565b915061229f82612238565b604082019050919050565b600060208201905081810360008301526122c381612287565b9050919050565b60006060820190506122df6000830186611d15565b6122ec6020830185611a9b565b81810360408301526122fe81846119ab565b9050949350505050565b7f4552433732313a206f776e657220717565727920666f72206e6f6e657869737460008201527f656e7420746f6b656e0000000000000000000000000000000000000000000000602082015250565b6000612364602983611956565b915061236f82612308565b604082019050919050565b6000602082019050818103600083015261239381612357565b9050919050565b7f4552433732313a2062616c616e636520717565727920666f7220746865207a6560008201527f726f206164647265737300000000000000000000000000000000000000000000602082015250565b60006123f6602a83611956565b91506124018261239a565b604082019050919050565b60006020820190508181036000830152612425816123e9565b9050919050565b7f4552433732314d657461646174613a2055524920717565727920666f72206e6f60008201527f6e6578697374656e7420746f6b656e0000000000000000000000000000000000602082015250565b6000612488602f83611956565b91506124938261242c565b604082019050919050565b600060208201905081810360008301526124b78161247b565b9050919050565b60006124ca82856121f0565b91506124d682846121f0565b91508190509392505050565b7f4552433732313a206f70657261746f7220717565727920666f72206e6f6e657860008201527f697374656e7420746f6b656e0000000000000000000000000000000000000000602082015250565b600061253e602c83611956565b9150612549826124e2565b604082019050919050565b6000602082019050818103600083015261256d81612531565b9050919050565b7f4552433732313a207472616e73666572206f6620746f6b656e2074686174206960008201527f73206e6f74206f776e0000000000000000000000000000000000000000000000602082015250565b60006125d0602983611956565b91506125db82612574565b604082019050919050565b600060208201905081810360008301526125ff816125c3565b9050919050565b7f4552433732313a207472616e7366657220746f20746865207a65726f2061646460008201527f7265737300000000000000000000000000000000000000000000000000000000602082015250565b6000612662602483611956565b915061266d82612606565b604082019050919050565b6000602082019050818103600083015261269181612655565b9050919050565b7f4e487b7100000000000000000000000000000000000000000000000000000000600052601160045260246000fd5b60006126d282611a06565b91506126dd83611a06565b9250828210156126f0576126ef612698565b5b828203905092915050565b600061270682611a06565b915061271183611a06565b9250827fffffffffffffffffffffffffffffffffffffffffffffffffffffffffffffffff0382111561274657612745612698565b5b828201905092915050565b7f4552433732313a206d696e7420746f20746865207a65726f2061646472657373600082015250565b6000612787602083611956565b915061279282612751565b602082019050919050565b600060208201905081810360008301526127b68161277a565b9050919050565b7f4552433732313a20746f6b656e20616c7265616479206d696e74656400000000600082015250565b60006127f3601c83611956565b91506127fe826127bd565b602082019050919050565b60006020820190508181036000830152612822816127e6565b9050919050565b7f4552433732313a20617070726f766520746f2063616c6c657200000000000000600082015250565b600061285f601983611956565b915061286a82612829565b602082019050919050565b6000602082019050818103600083015261288e81612852565b9050919050565b7f4552433732313a207472616e7366657220746f206e6f6e20455243373231526560008201527f63656976657220696d706c656d656e7465720000000000000000000000000000602082015250565b60006128f1603283611956565b91506128fc82612895565b604082019050919050565b60006020820190508181036000830152612920816128e4565b9050919050565b600061293282611a06565b91507fffffffffffffffffffffffffffffffffffffffffffffffffffffffffffffffff82141561296557612964612698565b5b600182019050919050565b7f4e487b7100000000000000000000000000000000000000000000000000000000600052601260045260246000fd5b60006129aa82611a06565b91506129b583611a06565b9250826129c5576129c4612970565b5b828204905092915050565b60006129db82611a06565b91506129e683611a06565b9250826129f6576129f5612970565b5b828206905092915050565b7f4e487b7100000000000000000000000000000000000000000000000000000000600052603260045260246000fd5b600081519050919050565b600082825260208201905092915050565b6000612a5782612a30565b612a618185612a3b565b9350612a71818560208601611967565b612a7a8161199a565b840191505092915050565b6000608082019050612a9a6000830187611a9b565b612aa76020830186611a9b565b612ab46040830185611d15565b8181036060830152612ac68184612a4c565b905095945050505050565b600081519050612ae0816118bc565b92915050565b600060208284031215612afc57612afb611886565b5b6000612b0a84828501612ad1565b9150509291505056fea26469706673582212205e39e63d956a7657c5d1e0f95925f4e648bc8dd7c96b77749a1a88ecac2b3ad564736f6c634300080a0033",
  "immutableReferences": {},
  "source": "// SPDX-License-Identifier: MIT\r\npragma solidity >=0.4.22 <0.9.0;\r\n\r\nimport \"@openzeppelin/contracts/utils/Counters.sol\";\r\nimport \"@openzeppelin/contracts/token/ERC721/extensions/ERC721URIStorage.sol\";\r\nimport \"@openzeppelin/contracts/token/ERC721/ERC721.sol\";\r\n\r\ncontract NFT is ERC721 {\r\n    using Counters for Counters.Counter;\r\n    Counters.Counter private _tokenIds;\r\n    address contractAddress;\r\n    mapping(string => bool) _propertycontractIdExiste;\r\n    struct property {\r\n        uint256 id;\r\n        address owner;\r\n        string propertycontractId;\r\n    }\r\n    //Creating Proprety Event\r\n    event propertyCreated(uint256 id, address owner, string propertycontractId);\r\n\r\n    mapping(uint256 => property) private _propertys;\r\n\r\n    constructor(address marketplaceAddress) ERC721(\"Metaverse\", \"METT\") {\r\n        contractAddress = marketplaceAddress;\r\n    }\r\n\r\n    function createProprety(address _owner, string memory _propertycontractId)\r\n        public\r\n        returns (uint256)\r\n    {\r\n        require(\r\n            !_propertycontractIdExiste[_propertycontractId],\r\n            \"The property contract Id already Existe, it must be unique\"\r\n        );\r\n\r\n        _tokenIds.increment();\r\n        uint256 newItemId = _tokenIds.current();\r\n        _propertys[newItemId] = property(\r\n            newItemId,\r\n            _owner,\r\n            _propertycontractId\r\n        );\r\n        _mint(msg.sender, newItemId);\r\n        _propertycontractIdExiste[_propertycontractId] = true;\r\n        setApprovalForAll(contractAddress, true);\r\n        emit propertyCreated(newItemId, _owner, _propertycontractId);\r\n        return newItemId;\r\n    }\r\n}\r\n",
  "sourcePath": "C:\\Users\\Omar Ra\\Desktop\\Front\\SmartContracts\\contracts\\NFTContract.sol",
  "compiler": {
    "name": "solc",
    "version": "0.8.10+commit.fc410830.Emscripten.clang"
  },
  "schemaVersion": "3.4.4",
  "updatedAt": "2022-01-05T16:34:49.626Z",
  "networkType": "ethereum",
  "devdoc": {
    "kind": "dev",
    "methods": {
      "approve(address,uint256)": {
        "details": "See {IERC721-approve}."
      },
      "balanceOf(address)": {
        "details": "See {IERC721-balanceOf}."
      },
      "getApproved(uint256)": {
        "details": "See {IERC721-getApproved}."
      },
      "isApprovedForAll(address,address)": {
        "details": "See {IERC721-isApprovedForAll}."
      },
      "name()": {
        "details": "See {IERC721Metadata-name}."
      },
      "ownerOf(uint256)": {
        "details": "See {IERC721-ownerOf}."
      },
      "safeTransferFrom(address,address,uint256)": {
        "details": "See {IERC721-safeTransferFrom}."
      },
      "safeTransferFrom(address,address,uint256,bytes)": {
        "details": "See {IERC721-safeTransferFrom}."
      },
      "setApprovalForAll(address,bool)": {
        "details": "See {IERC721-setApprovalForAll}."
      },
      "supportsInterface(bytes4)": {
        "details": "See {IERC165-supportsInterface}."
      },
      "symbol()": {
        "details": "See {IERC721Metadata-symbol}."
      },
      "tokenURI(uint256)": {
        "details": "See {IERC721Metadata-tokenURI}."
      },
      "transferFrom(address,address,uint256)": {
        "details": "See {IERC721-transferFrom}."
      }
    },
    "version": 1
  },
  "userdoc": {
    "kind": "user",
    "methods": {},
    "version": 1
  }
}