{
  "contractName": "NFTMarket",
  "abi": [
    {
      "inputs": [],
      "stateMutability": "nonpayable",
      "type": "constructor"
    },
    {
      "anonymous": false,
      "inputs": [
        {
          "indexed": true,
          "internalType": "uint256",
          "name": "itemId",
          "type": "uint256"
        },
        {
          "indexed": true,
          "internalType": "uint256",
          "name": "tokenId",
          "type": "uint256"
        },
        {
          "indexed": false,
          "internalType": "address",
          "name": "seller",
          "type": "address"
        },
        {
          "indexed": false,
          "internalType": "address",
          "name": "owner",
          "type": "address"
        },
        {
          "indexed": false,
          "internalType": "uint256",
          "name": "price",
          "type": "uint256"
        },
        {
          "indexed": false,
          "internalType": "bool",
          "name": "sold",
          "type": "bool"
        }
      ],
      "name": "MarketItemCreated",
      "type": "event"
    },
    {
      "anonymous": false,
      "inputs": [
        {
          "indexed": false,
          "internalType": "uint256",
          "name": "itemId",
          "type": "uint256"
        },
        {
          "indexed": false,
          "internalType": "uint256",
          "name": "price",
          "type": "uint256"
        }
      ],
      "name": "MarketSaleCreated",
      "type": "event"
    },
    {
      "anonymous": false,
      "inputs": [
        {
          "indexed": false,
          "internalType": "uint256",
          "name": "id",
          "type": "uint256"
        },
        {
          "indexed": false,
          "internalType": "address",
          "name": "owner",
          "type": "address"
        },
        {
          "indexed": false,
          "internalType": "string",
          "name": "propertycontractId",
          "type": "string"
        }
      ],
      "name": "propertyCreated",
      "type": "event"
    },
    {
      "inputs": [
        {
          "internalType": "string",
          "name": "_propertycontractId",
          "type": "string"
        }
      ],
      "name": "createProprety",
      "outputs": [
        {
          "internalType": "uint256",
          "name": "",
          "type": "uint256"
        }
      ],
      "stateMutability": "nonpayable",
      "type": "function"
    },
    {
      "inputs": [
        {
          "internalType": "address",
          "name": "newOwner",
          "type": "address"
        },
        {
          "internalType": "uint256",
          "name": "tokenId",
          "type": "uint256"
        }
      ],
      "name": "changeOwner",
      "outputs": [],
      "stateMutability": "nonpayable",
      "type": "function"
    },
    {
      "inputs": [],
      "name": "getListingPrice",
      "outputs": [
        {
          "internalType": "uint256",
          "name": "",
          "type": "uint256"
        }
      ],
      "stateMutability": "view",
      "type": "function",
      "constant": true
    },
    {
      "inputs": [],
      "name": "getOwner",
      "outputs": [
        {
          "internalType": "address",
          "name": "",
          "type": "address"
        }
      ],
      "stateMutability": "view",
      "type": "function",
      "constant": true
    },
    {
      "inputs": [
        {
          "internalType": "uint256",
          "name": "tokenId",
          "type": "uint256"
        },
        {
          "internalType": "uint256",
          "name": "price",
          "type": "uint256"
        }
      ],
      "name": "createMarketItem",
      "outputs": [],
      "stateMutability": "payable",
      "type": "function",
      "payable": true
    },
    {
      "inputs": [
        {
          "internalType": "uint256",
          "name": "itemId",
          "type": "uint256"
        }
      ],
      "name": "createMarketSale",
      "outputs": [],
      "stateMutability": "payable",
      "type": "function",
      "payable": true
    },
    {
      "inputs": [],
      "name": "fetchMarketItems",
      "outputs": [
        {
          "components": [
            {
              "internalType": "uint256",
              "name": "itemId",
              "type": "uint256"
            },
            {
              "internalType": "uint256",
              "name": "tokenId",
              "type": "uint256"
            },
            {
              "internalType": "address payable",
              "name": "seller",
              "type": "address"
            },
            {
              "internalType": "address payable",
              "name": "owner",
              "type": "address"
            },
            {
              "internalType": "uint256",
              "name": "price",
              "type": "uint256"
            },
            {
              "internalType": "bool",
              "name": "sold",
              "type": "bool"
            }
          ],
          "internalType": "struct NFTMarket.MarketItem[]",
          "name": "",
          "type": "tuple[]"
        }
      ],
      "stateMutability": "view",
      "type": "function",
      "constant": true
    },
    {
      "inputs": [],
      "name": "fetchMyNFTs",
      "outputs": [
        {
          "components": [
            {
              "internalType": "uint256",
              "name": "itemId",
              "type": "uint256"
            },
            {
              "internalType": "uint256",
              "name": "tokenId",
              "type": "uint256"
            },
            {
              "internalType": "address payable",
              "name": "seller",
              "type": "address"
            },
            {
              "internalType": "address payable",
              "name": "owner",
              "type": "address"
            },
            {
              "internalType": "uint256",
              "name": "price",
              "type": "uint256"
            },
            {
              "internalType": "bool",
              "name": "sold",
              "type": "bool"
            }
          ],
          "internalType": "struct NFTMarket.MarketItem[]",
          "name": "",
          "type": "tuple[]"
        }
      ],
      "stateMutability": "view",
      "type": "function",
      "constant": true
    },
    {
      "inputs": [],
      "name": "getOwnerPropretyIds",
      "outputs": [
        {
          "internalType": "uint256[]",
          "name": "",
          "type": "uint256[]"
        }
      ],
      "stateMutability": "view",
      "type": "function",
      "constant": true
    },
    {
      "inputs": [
        {
          "internalType": "uint256",
          "name": "itemId",
          "type": "uint256"
        }
      ],
      "name": "cancelMarketSell",
      "outputs": [],
      "stateMutability": "nonpayable",
      "type": "function"
    },
    {
      "inputs": [],
      "name": "fetchItemsCreated",
      "outputs": [
        {
          "components": [
            {
              "internalType": "uint256",
              "name": "itemId",
              "type": "uint256"
            },
            {
              "internalType": "uint256",
              "name": "tokenId",
              "type": "uint256"
            },
            {
              "internalType": "address payable",
              "name": "seller",
              "type": "address"
            },
            {
              "internalType": "address payable",
              "name": "owner",
              "type": "address"
            },
            {
              "internalType": "uint256",
              "name": "price",
              "type": "uint256"
            },
            {
              "internalType": "bool",
              "name": "sold",
              "type": "bool"
            }
          ],
          "internalType": "struct NFTMarket.MarketItem[]",
          "name": "",
          "type": "tuple[]"
        }
      ],
      "stateMutability": "view",
      "type": "function",
      "constant": true
    }
  ],
  "bytecode": "0x60806040526658d15e1762800060055534801561001b57600080fd5b50600160008190555033600460006101000a81548173ffffffffffffffffffffffffffffffffffffffff021916908373ffffffffffffffffffffffffffffffffffffffff16021790555061230e806100746000396000f3fe60806040526004361061009c5760003560e01c806356df3db11161006457806356df3db11461017b57806365f20dd1146101a4578063893d20e8146101cd578063be9af536146101f8578063dca8d03f14610214578063f064c32e1461023f5761009c565b80630f08efe0146100a157806312e85585146100cc578063202e3740146100f7578063361c1995146101225780633aabcfca1461013e575b600080fd5b3480156100ad57600080fd5b506100b661026a565b6040516100c39190611855565b60405180910390f35b3480156100d857600080fd5b506100e16104de565b6040516100ee9190611886565b60405180910390f35b34801561010357600080fd5b5061010c6104e8565b6040516101199190611855565b60405180910390f35b61013c600480360381019061013791906118e1565b6107e0565b005b34801561014a57600080fd5b5061016560048036038101906101609190611a67565b610b08565b6040516101729190611886565b60405180910390f35b34801561018757600080fd5b506101a2600480360381019061019d9190611aee565b610cbe565b005b3480156101b057600080fd5b506101cb60048036038101906101c69190611b2e565b610d17565b005b3480156101d957600080fd5b506101e2610dc8565b6040516101ef9190611b6a565b60405180910390f35b610212600480360381019061020d9190611b2e565b610df2565b005b34801561022057600080fd5b50610229611091565b6040516102369190611c34565b60405180910390f35b34801561024b57600080fd5b50610254611293565b6040516102619190611855565b60405180910390f35b60606000610278600161158b565b90506000610286600361158b565b610290600161158b565b61029a9190611c85565b90506000808267ffffffffffffffff8111156102b9576102b861193c565b5b6040519080825280602002602001820160405280156102f257816020015b6102df6115af565b8152602001906001900390816102d75790505b50905060005b848110156104d357600073ffffffffffffffffffffffffffffffffffffffff16600760006001846103299190611cb9565b815260200190815260200160002060030160009054906101000a900473ffffffffffffffffffffffffffffffffffffffff1673ffffffffffffffffffffffffffffffffffffffff1614156104c05760006001826103869190611cb9565b90506000600760008381526020019081526020016000209050806040518060c001604052908160008201548152602001600182015481526020016002820160009054906101000a900473ffffffffffffffffffffffffffffffffffffffff1673ffffffffffffffffffffffffffffffffffffffff1673ffffffffffffffffffffffffffffffffffffffff1681526020016003820160009054906101000a900473ffffffffffffffffffffffffffffffffffffffff1673ffffffffffffffffffffffffffffffffffffffff1673ffffffffffffffffffffffffffffffffffffffff168152602001600482015481526020016005820160009054906101000a900460ff1615151515815250508486815181106104a3576104a2611d0f565b5b60200260200101819052506001856104bb9190611cb9565b945050505b80806104cb90611d3e565b9150506102f8565b508094505050505090565b6000600554905090565b606060006104f6600161158b565b905060008060005b8381101561059f573373ffffffffffffffffffffffffffffffffffffffff166007600060018461052e9190611cb9565b815260200190815260200160002060030160009054906101000a900473ffffffffffffffffffffffffffffffffffffffff1673ffffffffffffffffffffffffffffffffffffffff16141561058c576001836105899190611cb9565b92505b808061059790611d3e565b9150506104fe565b5060008267ffffffffffffffff8111156105bc576105bb61193c565b5b6040519080825280602002602001820160405280156105f557816020015b6105e26115af565b8152602001906001900390816105da5790505b50905060005b848110156107d5573373ffffffffffffffffffffffffffffffffffffffff166007600060018461062b9190611cb9565b815260200190815260200160002060030160009054906101000a900473ffffffffffffffffffffffffffffffffffffffff1673ffffffffffffffffffffffffffffffffffffffff1614156107c25760006001826106889190611cb9565b90506000600760008381526020019081526020016000209050806040518060c001604052908160008201548152602001600182015481526020016002820160009054906101000a900473ffffffffffffffffffffffffffffffffffffffff1673ffffffffffffffffffffffffffffffffffffffff1673ffffffffffffffffffffffffffffffffffffffff1681526020016003820160009054906101000a900473ffffffffffffffffffffffffffffffffffffffff1673ffffffffffffffffffffffffffffffffffffffff1673ffffffffffffffffffffffffffffffffffffffff168152602001600482015481526020016005820160009054906101000a900460ff1615151515815250508486815181106107a5576107a4611d0f565b5b60200260200101819052506001856107bd9190611cb9565b945050505b80806107cd90611d3e565b9150506105fb565b508094505050505090565b60026000541415610826576040517f08c379a000000000000000000000000000000000000000000000000000000000815260040161081d90611de4565b60405180910390fd5b600260008190555060008111610871576040517f08c379a000000000000000000000000000000000000000000000000000000000815260040161086890611e50565b60405180910390fd5b60055434146108b5576040517f08c379a00000000000000000000000000000000000000000000000000000000081526004016108ac90611ee2565b60405180910390fd5b3373ffffffffffffffffffffffffffffffffffffffff166006600084815260200190815260200160002060010160009054906101000a900473ffffffffffffffffffffffffffffffffffffffff1673ffffffffffffffffffffffffffffffffffffffff1614610959576040517f08c379a000000000000000000000000000000000000000000000000000000000815260040161095090611f4e565b60405180910390fd5b6109636001611599565b600061096f600161158b565b90506040518060c001604052808281526020018481526020013373ffffffffffffffffffffffffffffffffffffffff168152602001600073ffffffffffffffffffffffffffffffffffffffff1681526020018381526020016000151581525060076000838152602001908152602001600020600082015181600001556020820151816001015560408201518160020160006101000a81548173ffffffffffffffffffffffffffffffffffffffff021916908373ffffffffffffffffffffffffffffffffffffffff16021790555060608201518160030160006101000a81548173ffffffffffffffffffffffffffffffffffffffff021916908373ffffffffffffffffffffffffffffffffffffffff1602179055506080820151816004015560a08201518160050160006101000a81548160ff021916908315150217905550905050610aba3084610cbe565b82817f4a29ff6f650682addfdf8030b3eeb4610ec651b42d8603f2527633347f9489c9336000866000604051610af39493929190611f7d565b60405180910390a35060016000819055505050565b6000600882604051610b1a919061203c565b908152602001604051809103902060009054906101000a900460ff1615610b76576040517f08c379a0000000000000000000000000000000000000000000000000000000008152600401610b6d906120c5565b60405180910390fd5b610b806002611599565b6000610b8c600261158b565b905060405180606001604052808281526020013373ffffffffffffffffffffffffffffffffffffffff16815260200184815250600660008381526020019081526020016000206000820151816000015560208201518160010160006101000a81548173ffffffffffffffffffffffffffffffffffffffff021916908373ffffffffffffffffffffffffffffffffffffffff1602179055506040820151816002019080519060200190610c3f929190611613565b509050506001600884604051610c55919061203c565b908152602001604051809103902060006101000a81548160ff0219169083151502179055507f38bb9b4e70c2e35f2da4f6b4cb263e18ede8ca7dd7cffb4c990559a011228aaa813385604051610cad9392919061211e565b60405180910390a180915050919050565b816006600083815260200190815260200160002060010160006101000a81548173ffffffffffffffffffffffffffffffffffffffff021916908373ffffffffffffffffffffffffffffffffffffffff1602179055505050565b610d37336007600084815260200190815260200160002060010154610cbe565b336007600083815260200190815260200160002060030160006101000a81548173ffffffffffffffffffffffffffffffffffffffff021916908373ffffffffffffffffffffffffffffffffffffffff16021790555060016007600083815260200190815260200160002060050160006101000a81548160ff021916908315150217905550610dc56003611599565b50565b6000600460009054906101000a900473ffffffffffffffffffffffffffffffffffffffff16905090565b60026000541415610e38576040517f08c379a0000000000000000000000000000000000000000000000000000000008152600401610e2f90611de4565b60405180910390fd5b600260008190555060006007600083815260200190815260200160002060040154905060006007600084815260200190815260200160002060010154905081670de0b6b3a764000034610e8b919061218b565b14610ecb576040517f08c379a0000000000000000000000000000000000000000000000000000000008152600401610ec29061222e565b60405180910390fd5b6007600084815260200190815260200160002060020160009054906101000a900473ffffffffffffffffffffffffffffffffffffffff1673ffffffffffffffffffffffffffffffffffffffff166108fc349081150290604051600060405180830381858888f19350505050158015610f47573d6000803e3d6000fd5b50610f523382610cbe565b336007600085815260200190815260200160002060030160006101000a81548173ffffffffffffffffffffffffffffffffffffffff021916908373ffffffffffffffffffffffffffffffffffffffff16021790555060016007600085815260200190815260200160002060050160006101000a81548160ff021916908315150217905550610fe06003611599565b600460009054906101000a900473ffffffffffffffffffffffffffffffffffffffff1673ffffffffffffffffffffffffffffffffffffffff166108fc6005549081150290604051600060405180830381858888f1935050505015801561104a573d6000803e3d6000fd5b507f18997191af6f9fee852b1908c76b304658d41c37f594ba0bd39bd3083095498e833460405161107c92919061224e565b60405180910390a15050600160008190555050565b6060600061109f600261158b565b905060008060005b83811015611148573373ffffffffffffffffffffffffffffffffffffffff16600660006001846110d79190611cb9565b815260200190815260200160002060010160009054906101000a900473ffffffffffffffffffffffffffffffffffffffff1673ffffffffffffffffffffffffffffffffffffffff161415611135576001836111329190611cb9565b92505b808061114090611d3e565b9150506110a7565b5060008267ffffffffffffffff8111156111655761116461193c565b5b6040519080825280602002602001820160405280156111935781602001602082028036833780820191505090505b50905060005b84811015611288573373ffffffffffffffffffffffffffffffffffffffff16600660006001846111c99190611cb9565b815260200190815260200160002060010160009054906101000a900473ffffffffffffffffffffffffffffffffffffffff1673ffffffffffffffffffffffffffffffffffffffff1614156112755760006001826112269190611cb9565b90506000600660008381526020019081526020016000206000015490508084868151811061125757611256611d0f565b5b6020026020010181815250506001856112709190611cb9565b945050505b808061128090611d3e565b915050611199565b508094505050505090565b606060006112a1600161158b565b905060008060005b8381101561134a573373ffffffffffffffffffffffffffffffffffffffff16600760006001846112d99190611cb9565b815260200190815260200160002060020160009054906101000a900473ffffffffffffffffffffffffffffffffffffffff1673ffffffffffffffffffffffffffffffffffffffff161415611337576001836113349190611cb9565b92505b808061134290611d3e565b9150506112a9565b5060008267ffffffffffffffff8111156113675761136661193c565b5b6040519080825280602002602001820160405280156113a057816020015b61138d6115af565b8152602001906001900390816113855790505b50905060005b84811015611580573373ffffffffffffffffffffffffffffffffffffffff16600760006001846113d69190611cb9565b815260200190815260200160002060020160009054906101000a900473ffffffffffffffffffffffffffffffffffffffff1673ffffffffffffffffffffffffffffffffffffffff16141561156d5760006001826114339190611cb9565b90506000600760008381526020019081526020016000209050806040518060c001604052908160008201548152602001600182015481526020016002820160009054906101000a900473ffffffffffffffffffffffffffffffffffffffff1673ffffffffffffffffffffffffffffffffffffffff1673ffffffffffffffffffffffffffffffffffffffff1681526020016003820160009054906101000a900473ffffffffffffffffffffffffffffffffffffffff1673ffffffffffffffffffffffffffffffffffffffff1673ffffffffffffffffffffffffffffffffffffffff168152602001600482015481526020016005820160009054906101000a900460ff1615151515815250508486815181106115505761154f611d0f565b5b60200260200101819052506001856115689190611cb9565b945050505b808061157890611d3e565b9150506113a6565b508094505050505090565b600081600001549050919050565b6001816000016000828254019250508190555050565b6040518060c001604052806000815260200160008152602001600073ffffffffffffffffffffffffffffffffffffffff168152602001600073ffffffffffffffffffffffffffffffffffffffff168152602001600081526020016000151581525090565b82805461161f906122a6565b90600052602060002090601f0160209004810192826116415760008555611688565b82601f1061165a57805160ff1916838001178555611688565b82800160010185558215611688579182015b8281111561168757825182559160200191906001019061166c565b5b5090506116959190611699565b5090565b5b808211156116b257600081600090555060010161169a565b5090565b600081519050919050565b600082825260208201905092915050565b6000819050602082019050919050565b6000819050919050565b6116f5816116e2565b82525050565b600073ffffffffffffffffffffffffffffffffffffffff82169050919050565b6000611726826116fb565b9050919050565b6117368161171b565b82525050565b60008115159050919050565b6117518161173c565b82525050565b60c08201600082015161176d60008501826116ec565b50602082015161178060208501826116ec565b506040820151611793604085018261172d565b5060608201516117a6606085018261172d565b5060808201516117b960808501826116ec565b5060a08201516117cc60a0850182611748565b50505050565b60006117de8383611757565b60c08301905092915050565b6000602082019050919050565b6000611802826116b6565b61180c81856116c1565b9350611817836116d2565b8060005b8381101561184857815161182f88826117d2565b975061183a836117ea565b92505060018101905061181b565b5085935050505092915050565b6000602082019050818103600083015261186f81846117f7565b905092915050565b611880816116e2565b82525050565b600060208201905061189b6000830184611877565b92915050565b6000604051905090565b600080fd5b600080fd5b6118be816116e2565b81146118c957600080fd5b50565b6000813590506118db816118b5565b92915050565b600080604083850312156118f8576118f76118ab565b5b6000611906858286016118cc565b9250506020611917858286016118cc565b9150509250929050565b600080fd5b600080fd5b6000601f19601f8301169050919050565b7f4e487b7100000000000000000000000000000000000000000000000000000000600052604160045260246000fd5b6119748261192b565b810181811067ffffffffffffffff821117156119935761199261193c565b5b80604052505050565b60006119a66118a1565b90506119b2828261196b565b919050565b600067ffffffffffffffff8211156119d2576119d161193c565b5b6119db8261192b565b9050602081019050919050565b82818337600083830152505050565b6000611a0a611a05846119b7565b61199c565b905082815260208101848484011115611a2657611a25611926565b5b611a318482856119e8565b509392505050565b600082601f830112611a4e57611a4d611921565b5b8135611a5e8482602086016119f7565b91505092915050565b600060208284031215611a7d57611a7c6118ab565b5b600082013567ffffffffffffffff811115611a9b57611a9a6118b0565b5b611aa784828501611a39565b91505092915050565b6000611abb826116fb565b9050919050565b611acb81611ab0565b8114611ad657600080fd5b50565b600081359050611ae881611ac2565b92915050565b60008060408385031215611b0557611b046118ab565b5b6000611b1385828601611ad9565b9250506020611b24858286016118cc565b9150509250929050565b600060208284031215611b4457611b436118ab565b5b6000611b52848285016118cc565b91505092915050565b611b6481611ab0565b82525050565b6000602082019050611b7f6000830184611b5b565b92915050565b600081519050919050565b600082825260208201905092915050565b6000819050602082019050919050565b6000611bbd83836116ec565b60208301905092915050565b6000602082019050919050565b6000611be182611b85565b611beb8185611b90565b9350611bf683611ba1565b8060005b83811015611c27578151611c0e8882611bb1565b9750611c1983611bc9565b925050600181019050611bfa565b5085935050505092915050565b60006020820190508181036000830152611c4e8184611bd6565b905092915050565b7f4e487b7100000000000000000000000000000000000000000000000000000000600052601160045260246000fd5b6000611c90826116e2565b9150611c9b836116e2565b925082821015611cae57611cad611c56565b5b828203905092915050565b6000611cc4826116e2565b9150611ccf836116e2565b9250827fffffffffffffffffffffffffffffffffffffffffffffffffffffffffffffffff03821115611d0457611d03611c56565b5b828201905092915050565b7f4e487b7100000000000000000000000000000000000000000000000000000000600052603260045260246000fd5b6000611d49826116e2565b91507fffffffffffffffffffffffffffffffffffffffffffffffffffffffffffffffff821415611d7c57611d7b611c56565b5b600182019050919050565b600082825260208201905092915050565b7f5265656e7472616e637947756172643a207265656e7472616e742063616c6c00600082015250565b6000611dce601f83611d87565b9150611dd982611d98565b602082019050919050565b60006020820190508181036000830152611dfd81611dc1565b9050919050565b7f5072696365206d757374206265206174206c6561737420312077656900000000600082015250565b6000611e3a601c83611d87565b9150611e4582611e04565b602082019050919050565b60006020820190508181036000830152611e6981611e2d565b9050919050565b7f5072696365206d75737420626520657175616c20746f206c697374696e67207060008201527f7269636500000000000000000000000000000000000000000000000000000000602082015250565b6000611ecc602483611d87565b9150611ed782611e70565b604082019050919050565b60006020820190508181036000830152611efb81611ebf565b9050919050565b7f7468652073656c6c6572206d75737420626520746865206f776e657200000000600082015250565b6000611f38601c83611d87565b9150611f4382611f02565b602082019050919050565b60006020820190508181036000830152611f6781611f2b565b9050919050565b611f778161173c565b82525050565b6000608082019050611f926000830187611b5b565b611f9f6020830186611b5b565b611fac6040830185611877565b611fb96060830184611f6e565b95945050505050565b600081519050919050565b600081905092915050565b60005b83811015611ff6578082015181840152602081019050611fdb565b83811115612005576000848401525b50505050565b600061201682611fc2565b6120208185611fcd565b9350612030818560208601611fd8565b80840191505092915050565b6000612048828461200b565b915081905092915050565b7f5468652070726f706572747920636f6e747261637420496420616c726561647960008201527f204578697374652c206974206d75737420626520756e69717565000000000000602082015250565b60006120af603a83611d87565b91506120ba82612053565b604082019050919050565b600060208201905081810360008301526120de816120a2565b9050919050565b60006120f082611fc2565b6120fa8185611d87565b935061210a818560208601611fd8565b6121138161192b565b840191505092915050565b60006060820190506121336000830186611877565b6121406020830185611b5b565b818103604083015261215281846120e5565b9050949350505050565b7f4e487b7100000000000000000000000000000000000000000000000000000000600052601260045260246000fd5b6000612196826116e2565b91506121a1836116e2565b9250826121b1576121b061215c565b5b828204905092915050565b7f506c65617365207375626d6974207468652061736b696e67207072696365206960008201527f6e206f7264657220746f20636f6d706c65746520746865207075726368617365602082015250565b6000612218604083611d87565b9150612223826121bc565b604082019050919050565b600060208201905081810360008301526122478161220b565b9050919050565b60006040820190506122636000830185611877565b6122706020830184611877565b9392505050565b7f4e487b7100000000000000000000000000000000000000000000000000000000600052602260045260246000fd5b600060028204905060018216806122be57607f821691505b602082108114156122d2576122d1612277565b5b5091905056fea26469706673582212207b969e4c799a05c798257be03b8db4f897498505238b20fcbecd3af39af9f8e064736f6c634300080a0033",
  "immutableReferences": {},
  "source": "// SPDX-License-Identifier: MIT\r\npragma solidity >=0.4.22 <0.9.0;\r\n\r\nimport \"@openzeppelin/contracts/utils/Counters.sol\";\r\nimport \"@openzeppelin/contracts/security/ReentrancyGuard.sol\";\r\n\r\ncontract NFTMarket is ReentrancyGuard {\r\n    using Counters for Counters.Counter;\r\n    Counters.Counter private _itemIds;\r\n    Counters.Counter private _tokenIds;\r\n    Counters.Counter private _itemsSold;\r\n    address payable owner;\r\n    uint256 listingPrice = 0.025 ether;\r\n\r\n    constructor() {\r\n        owner = payable(msg.sender);\r\n    }\r\n\r\n    //structs and mappings\r\n    struct property {\r\n        uint256 id;\r\n        address owner;\r\n        string propertycontractId;\r\n    }\r\n\r\n    mapping(uint256 => property) private _propertys;\r\n\r\n    struct MarketItem {\r\n        uint256 itemId;\r\n        uint256 tokenId;\r\n        address payable seller;\r\n        address payable owner;\r\n        uint256 price;\r\n        bool sold;\r\n    }\r\n\r\n    mapping(uint256 => MarketItem) private idToMarketItem;\r\n    mapping(string => bool) _propertycontractIdExiste;\r\n    //Events\r\n    event propertyCreated(uint256 id, address owner, string propertycontractId);\r\n    event MarketSaleCreated(uint256 itemId, uint256 price);\r\n    event MarketItemCreated(\r\n        uint256 indexed itemId,\r\n        uint256 indexed tokenId,\r\n        address seller,\r\n        address owner,\r\n        uint256 price,\r\n        bool sold\r\n    );\r\n\r\n    // functions\r\n    //function to create a new proprety\r\n    function createProprety(string memory _propertycontractId)\r\n        public\r\n        returns (uint256)\r\n    {\r\n        require(\r\n            !_propertycontractIdExiste[_propertycontractId],\r\n            \"The property contract Id already Existe, it must be unique\"\r\n        );\r\n\r\n        _tokenIds.increment();\r\n        uint256 newItemId = _tokenIds.current();\r\n        _propertys[newItemId] = property(\r\n            newItemId,\r\n            msg.sender,\r\n            _propertycontractId\r\n        );\r\n        //_mint(msg.sender, newItemId);\r\n        _propertycontractIdExiste[_propertycontractId] = true;\r\n        //setApprovalForAll(contractAddress, true);\r\n        emit propertyCreated(newItemId, msg.sender, _propertycontractId);\r\n        return newItemId;\r\n    }\r\n\r\n    function changeOwner(address newOwner, uint256 tokenId) public {\r\n        _propertys[tokenId].owner = newOwner;\r\n    }\r\n\r\n    /* Returns the listing price of the contract */\r\n    function getListingPrice() public view returns (uint256) {\r\n        return listingPrice;\r\n    }\r\n\r\n    function getOwner() public view returns (address) {\r\n        return owner;\r\n    }\r\n\r\n    /* Places an item for sale on the marketplace */\r\n    function createMarketItem(uint256 tokenId, uint256 price)\r\n        public\r\n        payable\r\n        nonReentrant\r\n    {\r\n        require(price > 0, \"Price must be at least 1 wei\");\r\n        require(\r\n            msg.value == listingPrice,\r\n            \"Price must be equal to listing price\"\r\n        );\r\n        require(\r\n            _propertys[tokenId].owner == msg.sender,\r\n            \"the seller must be the owner\"\r\n        );\r\n        _itemIds.increment();\r\n        uint256 itemId = _itemIds.current();\r\n\r\n        idToMarketItem[itemId] = MarketItem(\r\n            itemId,\r\n            tokenId,\r\n            payable(msg.sender),\r\n            payable(address(0)),\r\n            price,\r\n            false\r\n        );\r\n        changeOwner(address(this), tokenId);\r\n        emit MarketItemCreated(\r\n            itemId,\r\n            tokenId,\r\n            msg.sender,\r\n            address(0),\r\n            price,\r\n            false\r\n        );\r\n    }\r\n\r\n    /* Creates the sale of a marketplace item */\r\n    /* Transfers ownership of the item, as well as funds between parties */\r\n    function createMarketSale(uint256 itemId) public payable nonReentrant {\r\n        uint256 price = idToMarketItem[itemId].price;\r\n        uint256 tokenId = idToMarketItem[itemId].tokenId;\r\n        //convert from wei to eth\r\n        require(\r\n            (msg.value / 10**18) == price,\r\n            \"Please submit the asking price in order to complete the purchase\"\r\n        );\r\n        idToMarketItem[itemId].seller.transfer(msg.value);\r\n        changeOwner(msg.sender, tokenId);\r\n        idToMarketItem[itemId].owner = payable(msg.sender);\r\n        idToMarketItem[itemId].sold = true;\r\n        _itemsSold.increment();\r\n        payable(owner).transfer(listingPrice);\r\n        emit MarketSaleCreated(itemId, msg.value);\r\n    }\r\n\r\n    /* Returns all unsold market items */\r\n    function fetchMarketItems() public view returns (MarketItem[] memory) {\r\n        uint256 itemCount = _itemIds.current();\r\n        uint256 unsoldItemCount = _itemIds.current() - _itemsSold.current();\r\n        uint256 currentIndex = 0;\r\n\r\n        MarketItem[] memory items = new MarketItem[](unsoldItemCount);\r\n        for (uint256 i = 0; i < itemCount; i++) {\r\n            if (idToMarketItem[i + 1].owner == address(0)) {\r\n                uint256 currentId = i + 1;\r\n                MarketItem storage currentItem = idToMarketItem[currentId];\r\n                items[currentIndex] = currentItem;\r\n                currentIndex += 1;\r\n            }\r\n        }\r\n        return items;\r\n    }\r\n\r\n    /* Returns onlyl items that a user has purchased */\r\n    function fetchMyNFTs() public view returns (MarketItem[] memory) {\r\n        uint256 totalItemCount = _itemIds.current();\r\n        uint256 itemCount = 0;\r\n        uint256 currentIndex = 0;\r\n\r\n        for (uint256 i = 0; i < totalItemCount; i++) {\r\n            if (idToMarketItem[i + 1].owner == msg.sender) {\r\n                itemCount += 1;\r\n            }\r\n        }\r\n\r\n        MarketItem[] memory items = new MarketItem[](itemCount);\r\n        for (uint256 i = 0; i < totalItemCount; i++) {\r\n            if (idToMarketItem[i + 1].owner == msg.sender) {\r\n                uint256 currentId = i + 1;\r\n                MarketItem storage currentItem = idToMarketItem[currentId];\r\n                items[currentIndex] = currentItem;\r\n                currentIndex += 1;\r\n            }\r\n        }\r\n        return items;\r\n    }\r\n\r\n    function getOwnerPropretyIds() public view returns (uint256[] memory) {\r\n        uint256 totaltokenCount = _tokenIds.current();\r\n        uint256 itemCount = 0;\r\n        uint256 currentIndex = 0;\r\n\r\n        for (uint256 i = 0; i < totaltokenCount; i++) {\r\n            if (_propertys[i + 1].owner == msg.sender) {\r\n                itemCount += 1;\r\n            }\r\n        }\r\n\r\n        uint256[] memory owneIds = new uint256[](itemCount);\r\n        for (uint256 i = 0; i < totaltokenCount; i++) {\r\n            if (_propertys[i + 1].owner == msg.sender) {\r\n                uint256 currentId = i + 1;\r\n                uint currentOwnerPropretyId = _propertys[currentId].id;\r\n                owneIds[currentIndex] = currentOwnerPropretyId;\r\n                currentIndex += 1;\r\n            }\r\n        }\r\n        return owneIds;\r\n    }\r\n\r\n    function cancelMarketSell(uint256 itemId) public {\r\n        changeOwner(msg.sender, idToMarketItem[itemId].tokenId);\r\n        idToMarketItem[itemId].owner = payable(msg.sender);\r\n        idToMarketItem[itemId].sold = true;\r\n        _itemsSold.increment();\r\n    }\r\n\r\n    /* Returns only items a user has created */\r\n    function fetchItemsCreated() public view returns (MarketItem[] memory) {\r\n        uint256 totalItemCount = _itemIds.current();\r\n        uint256 itemCount = 0;\r\n        uint256 currentIndex = 0;\r\n\r\n        for (uint256 i = 0; i < totalItemCount; i++) {\r\n            if (idToMarketItem[i + 1].seller == msg.sender) {\r\n                itemCount += 1;\r\n            }\r\n        }\r\n\r\n        MarketItem[] memory items = new MarketItem[](itemCount);\r\n        for (uint256 i = 0; i < totalItemCount; i++) {\r\n            if (idToMarketItem[i + 1].seller == msg.sender) {\r\n                uint256 currentId = i + 1;\r\n                MarketItem storage currentItem = idToMarketItem[currentId];\r\n                items[currentIndex] = currentItem;\r\n                currentIndex += 1;\r\n            }\r\n        }\r\n        return items;\r\n    }\r\n}\r\n",
  "sourcePath": "C:\\Users\\Omar Ra\\Desktop\\Front\\SmartContracts\\contracts\\NFTMarket.sol",
  "compiler": {
    "name": "solc",
    "version": "0.8.10+commit.fc410830.Emscripten.clang"
  },
  "schemaVersion": "3.4.4",
  "updatedAt": "2022-01-08T01:12:44.636Z",
  "networkType": "ethereum",
  "devdoc": {
    "kind": "dev",
    "methods": {},
    "version": 1
  },
  "userdoc": {
    "kind": "user",
    "methods": {},
    "version": 1
  }
}