{
  "contractName": "NFTMarket",
  "abi": [
    {
      "inputs": [],
      "stateMutability": "nonpayable",
      "type": "constructor"
    },
    {
      "anonymous": false,
      "inputs": [
        {
          "indexed": true,
          "internalType": "uint256",
          "name": "itemId",
          "type": "uint256"
        },
        {
          "indexed": true,
          "internalType": "uint256",
          "name": "tokenId",
          "type": "uint256"
        },
        {
          "indexed": false,
          "internalType": "address",
          "name": "seller",
          "type": "address"
        },
        {
          "indexed": false,
          "internalType": "address",
          "name": "owner",
          "type": "address"
        },
        {
          "indexed": false,
          "internalType": "uint256",
          "name": "price",
          "type": "uint256"
        },
        {
          "indexed": false,
          "internalType": "bool",
          "name": "sold",
          "type": "bool"
        }
      ],
      "name": "MarketItemCreated",
      "type": "event"
    },
    {
      "anonymous": false,
      "inputs": [
        {
          "indexed": false,
          "internalType": "uint256",
          "name": "itemId",
          "type": "uint256"
        },
        {
          "indexed": false,
          "internalType": "uint256",
          "name": "price",
          "type": "uint256"
        }
      ],
      "name": "MarketSaleCreated",
      "type": "event"
    },
    {
      "anonymous": false,
      "inputs": [
        {
          "indexed": false,
          "internalType": "uint256",
          "name": "id",
          "type": "uint256"
        },
        {
          "indexed": false,
          "internalType": "address",
          "name": "owner",
          "type": "address"
        },
        {
          "indexed": false,
          "internalType": "string",
          "name": "propertycontractId",
          "type": "string"
        }
      ],
      "name": "propertyCreated",
      "type": "event"
    },
    {
      "inputs": [
        {
          "internalType": "string",
          "name": "_propertycontractId",
          "type": "string"
        }
      ],
      "name": "createProprety",
      "outputs": [
        {
          "internalType": "uint256",
          "name": "",
          "type": "uint256"
        }
      ],
      "stateMutability": "nonpayable",
      "type": "function"
    },
    {
      "inputs": [
        {
          "internalType": "uint256",
          "name": "id",
          "type": "uint256"
        }
      ],
      "name": "getPropretyByTokenId",
      "outputs": [
        {
          "components": [
            {
              "internalType": "uint256",
              "name": "id",
              "type": "uint256"
            },
            {
              "internalType": "address",
              "name": "owner",
              "type": "address"
            },
            {
              "internalType": "string",
              "name": "propertycontractId",
              "type": "string"
            }
          ],
          "internalType": "struct NFTMarket.property",
          "name": "",
          "type": "tuple"
        }
      ],
      "stateMutability": "view",
      "type": "function",
      "constant": true
    },
    {
      "inputs": [
        {
          "internalType": "address",
          "name": "newOwner",
          "type": "address"
        },
        {
          "internalType": "uint256",
          "name": "tokenId",
          "type": "uint256"
        }
      ],
      "name": "changeOwner",
      "outputs": [],
      "stateMutability": "nonpayable",
      "type": "function"
    },
    {
      "inputs": [],
      "name": "getListingPrice",
      "outputs": [
        {
          "internalType": "uint256",
          "name": "",
          "type": "uint256"
        }
      ],
      "stateMutability": "view",
      "type": "function",
      "constant": true
    },
    {
      "inputs": [],
      "name": "getOwner",
      "outputs": [
        {
          "internalType": "address",
          "name": "",
          "type": "address"
        }
      ],
      "stateMutability": "view",
      "type": "function",
      "constant": true
    },
    {
      "inputs": [
        {
          "internalType": "uint256",
          "name": "tokenId",
          "type": "uint256"
        },
        {
          "internalType": "uint256",
          "name": "price",
          "type": "uint256"
        }
      ],
      "name": "createMarketItem",
      "outputs": [],
      "stateMutability": "payable",
      "type": "function",
      "payable": true
    },
    {
      "inputs": [
        {
          "internalType": "uint256",
          "name": "itemId",
          "type": "uint256"
        }
      ],
      "name": "createMarketSale",
      "outputs": [],
      "stateMutability": "payable",
      "type": "function",
      "payable": true
    },
    {
      "inputs": [],
      "name": "fetchMarketItems",
      "outputs": [
        {
          "components": [
            {
              "internalType": "uint256",
              "name": "itemId",
              "type": "uint256"
            },
            {
              "internalType": "uint256",
              "name": "tokenId",
              "type": "uint256"
            },
            {
              "internalType": "address payable",
              "name": "seller",
              "type": "address"
            },
            {
              "internalType": "address payable",
              "name": "owner",
              "type": "address"
            },
            {
              "internalType": "uint256",
              "name": "price",
              "type": "uint256"
            },
            {
              "internalType": "bool",
              "name": "sold",
              "type": "bool"
            }
          ],
          "internalType": "struct NFTMarket.MarketItem[]",
          "name": "",
          "type": "tuple[]"
        }
      ],
      "stateMutability": "view",
      "type": "function",
      "constant": true
    },
    {
      "inputs": [],
      "name": "fetchMyNFTs",
      "outputs": [
        {
          "components": [
            {
              "internalType": "uint256",
              "name": "itemId",
              "type": "uint256"
            },
            {
              "internalType": "uint256",
              "name": "tokenId",
              "type": "uint256"
            },
            {
              "internalType": "address payable",
              "name": "seller",
              "type": "address"
            },
            {
              "internalType": "address payable",
              "name": "owner",
              "type": "address"
            },
            {
              "internalType": "uint256",
              "name": "price",
              "type": "uint256"
            },
            {
              "internalType": "bool",
              "name": "sold",
              "type": "bool"
            }
          ],
          "internalType": "struct NFTMarket.MarketItem[]",
          "name": "",
          "type": "tuple[]"
        }
      ],
      "stateMutability": "view",
      "type": "function",
      "constant": true
    },
    {
      "inputs": [],
      "name": "getOwnerPropretyIds",
      "outputs": [
        {
          "internalType": "uint256[]",
          "name": "",
          "type": "uint256[]"
        }
      ],
      "stateMutability": "view",
      "type": "function",
      "constant": true
    },
    {
      "inputs": [
        {
          "internalType": "uint256",
          "name": "itemId",
          "type": "uint256"
        }
      ],
      "name": "cancelMarketSell",
      "outputs": [],
      "stateMutability": "nonpayable",
      "type": "function"
    },
    {
      "inputs": [],
      "name": "fetchItemsCreated",
      "outputs": [
        {
          "components": [
            {
              "internalType": "uint256",
              "name": "itemId",
              "type": "uint256"
            },
            {
              "internalType": "uint256",
              "name": "tokenId",
              "type": "uint256"
            },
            {
              "internalType": "address payable",
              "name": "seller",
              "type": "address"
            },
            {
              "internalType": "address payable",
              "name": "owner",
              "type": "address"
            },
            {
              "internalType": "uint256",
              "name": "price",
              "type": "uint256"
            },
            {
              "internalType": "bool",
              "name": "sold",
              "type": "bool"
            }
          ],
          "internalType": "struct NFTMarket.MarketItem[]",
          "name": "",
          "type": "tuple[]"
        }
      ],
      "stateMutability": "view",
      "type": "function",
      "constant": true
    },
    {
      "inputs": [],
      "name": "displayAllTransactions",
      "outputs": [
        {
          "components": [
            {
              "internalType": "uint256",
              "name": "itemId",
              "type": "uint256"
            },
            {
              "internalType": "uint256",
              "name": "tokenId",
              "type": "uint256"
            },
            {
              "internalType": "address payable",
              "name": "seller",
              "type": "address"
            },
            {
              "internalType": "address payable",
              "name": "owner",
              "type": "address"
            },
            {
              "internalType": "uint256",
              "name": "price",
              "type": "uint256"
            },
            {
              "internalType": "bool",
              "name": "sold",
              "type": "bool"
            }
          ],
          "internalType": "struct NFTMarket.MarketItem[]",
          "name": "",
          "type": "tuple[]"
        }
      ],
      "stateMutability": "view",
      "type": "function",
      "constant": true
    }
  ],
  "bytecode": "0x60806040526658d15e1762800060055534801561001b57600080fd5b50600160008190555033600460006101000a81548173ffffffffffffffffffffffffffffffffffffffff021916908373ffffffffffffffffffffffffffffffffffffffff160217905550612847806100746000396000f3fe6080604052600436106100c25760003560e01c806365f20dd11161007f578063be9af53611610059578063be9af5361461025b578063dca8d03f14610277578063f064c32e146102a2578063f5f0cefc146102cd576100c2565b806365f20dd1146101ca5780636f66c133146101f3578063893d20e814610230576100c2565b80630f08efe0146100c757806312e85585146100f2578063202e37401461011d578063361c1995146101485780633aabcfca1461016457806356df3db1146101a1575b600080fd5b3480156100d357600080fd5b506100dc6102f8565b6040516100e99190611cc3565b60405180910390f35b3480156100fe57600080fd5b5061010761056c565b6040516101149190611cf4565b60405180910390f35b34801561012957600080fd5b50610132610576565b60405161013f9190611cc3565b60405180910390f35b610162600480360381019061015d9190611d4f565b61086e565b005b34801561017057600080fd5b5061018b60048036038101906101869190611ed5565b610b96565b6040516101989190611cf4565b60405180910390f35b3480156101ad57600080fd5b506101c860048036038101906101c39190611f5c565b610d4c565b005b3480156101d657600080fd5b506101f160048036038101906101ec9190611f9c565b610da5565b005b3480156101ff57600080fd5b5061021a60048036038101906102159190611f9c565b610e56565b60405161022791906120b0565b60405180910390f35b34801561023c57600080fd5b50610245610f7b565b60405161025291906120e1565b60405180910390f35b61027560048036038101906102709190611f9c565b610fa5565b005b34801561028357600080fd5b5061028c611244565b60405161029991906121ab565b60405180910390f35b3480156102ae57600080fd5b506102b7611446565b6040516102c49190611cc3565b60405180910390f35b3480156102d957600080fd5b506102e261173e565b6040516102ef9190611cc3565b60405180910390f35b6060600061030660016119c2565b9050600061031460036119c2565b61031e60016119c2565b61032891906121fc565b90506000808267ffffffffffffffff81111561034757610346611daa565b5b60405190808252806020026020018201604052801561038057816020015b61036d6119e6565b8152602001906001900390816103655790505b50905060005b8481101561056157600073ffffffffffffffffffffffffffffffffffffffff16600760006001846103b79190612230565b815260200190815260200160002060030160009054906101000a900473ffffffffffffffffffffffffffffffffffffffff1673ffffffffffffffffffffffffffffffffffffffff16141561054e5760006001826104149190612230565b90506000600760008381526020019081526020016000209050806040518060c001604052908160008201548152602001600182015481526020016002820160009054906101000a900473ffffffffffffffffffffffffffffffffffffffff1673ffffffffffffffffffffffffffffffffffffffff1673ffffffffffffffffffffffffffffffffffffffff1681526020016003820160009054906101000a900473ffffffffffffffffffffffffffffffffffffffff1673ffffffffffffffffffffffffffffffffffffffff1673ffffffffffffffffffffffffffffffffffffffff168152602001600482015481526020016005820160009054906101000a900460ff16151515158152505084868151811061053157610530612286565b5b60200260200101819052506001856105499190612230565b945050505b8080610559906122b5565b915050610386565b508094505050505090565b6000600554905090565b6060600061058460016119c2565b905060008060005b8381101561062d573373ffffffffffffffffffffffffffffffffffffffff16600760006001846105bc9190612230565b815260200190815260200160002060030160009054906101000a900473ffffffffffffffffffffffffffffffffffffffff1673ffffffffffffffffffffffffffffffffffffffff16141561061a576001836106179190612230565b92505b8080610625906122b5565b91505061058c565b5060008267ffffffffffffffff81111561064a57610649611daa565b5b60405190808252806020026020018201604052801561068357816020015b6106706119e6565b8152602001906001900390816106685790505b50905060005b84811015610863573373ffffffffffffffffffffffffffffffffffffffff16600760006001846106b99190612230565b815260200190815260200160002060030160009054906101000a900473ffffffffffffffffffffffffffffffffffffffff1673ffffffffffffffffffffffffffffffffffffffff1614156108505760006001826107169190612230565b90506000600760008381526020019081526020016000209050806040518060c001604052908160008201548152602001600182015481526020016002820160009054906101000a900473ffffffffffffffffffffffffffffffffffffffff1673ffffffffffffffffffffffffffffffffffffffff1673ffffffffffffffffffffffffffffffffffffffff1681526020016003820160009054906101000a900473ffffffffffffffffffffffffffffffffffffffff1673ffffffffffffffffffffffffffffffffffffffff1673ffffffffffffffffffffffffffffffffffffffff168152602001600482015481526020016005820160009054906101000a900460ff16151515158152505084868151811061083357610832612286565b5b602002602001018190525060018561084b9190612230565b945050505b808061085b906122b5565b915050610689565b508094505050505090565b600260005414156108b4576040517f08c379a00000000000000000000000000000000000000000000000000000000081526004016108ab9061235b565b60405180910390fd5b6002600081905550600081116108ff576040517f08c379a00000000000000000000000000000000000000000000000000000000081526004016108f6906123c7565b60405180910390fd5b6005543414610943576040517f08c379a000000000000000000000000000000000000000000000000000000000815260040161093a90612459565b60405180910390fd5b3373ffffffffffffffffffffffffffffffffffffffff166006600084815260200190815260200160002060010160009054906101000a900473ffffffffffffffffffffffffffffffffffffffff1673ffffffffffffffffffffffffffffffffffffffff16146109e7576040517f08c379a00000000000000000000000000000000000000000000000000000000081526004016109de906124c5565b60405180910390fd5b6109f160016119d0565b60006109fd60016119c2565b90506040518060c001604052808281526020018481526020013373ffffffffffffffffffffffffffffffffffffffff168152602001600073ffffffffffffffffffffffffffffffffffffffff1681526020018381526020016000151581525060076000838152602001908152602001600020600082015181600001556020820151816001015560408201518160020160006101000a81548173ffffffffffffffffffffffffffffffffffffffff021916908373ffffffffffffffffffffffffffffffffffffffff16021790555060608201518160030160006101000a81548173ffffffffffffffffffffffffffffffffffffffff021916908373ffffffffffffffffffffffffffffffffffffffff1602179055506080820151816004015560a08201518160050160006101000a81548160ff021916908315150217905550905050610b483084610d4c565b82817f4a29ff6f650682addfdf8030b3eeb4610ec651b42d8603f2527633347f9489c9336000866000604051610b8194939291906124f4565b60405180910390a35060016000819055505050565b6000600882604051610ba89190612575565b908152602001604051809103902060009054906101000a900460ff1615610c04576040517f08c379a0000000000000000000000000000000000000000000000000000000008152600401610bfb906125fe565b60405180910390fd5b610c0e60026119d0565b6000610c1a60026119c2565b905060405180606001604052808281526020013373ffffffffffffffffffffffffffffffffffffffff16815260200184815250600660008381526020019081526020016000206000820151816000015560208201518160010160006101000a81548173ffffffffffffffffffffffffffffffffffffffff021916908373ffffffffffffffffffffffffffffffffffffffff1602179055506040820151816002019080519060200190610ccd929190611a4a565b509050506001600884604051610ce39190612575565b908152602001604051809103902060006101000a81548160ff0219169083151502179055507f38bb9b4e70c2e35f2da4f6b4cb263e18ede8ca7dd7cffb4c990559a011228aaa813385604051610d3b93929190612657565b60405180910390a180915050919050565b816006600083815260200190815260200160002060010160006101000a81548173ffffffffffffffffffffffffffffffffffffffff021916908373ffffffffffffffffffffffffffffffffffffffff1602179055505050565b610dc5336007600084815260200190815260200160002060010154610d4c565b336007600083815260200190815260200160002060030160006101000a81548173ffffffffffffffffffffffffffffffffffffffff021916908373ffffffffffffffffffffffffffffffffffffffff16021790555060016007600083815260200190815260200160002060050160006101000a81548160ff021916908315150217905550610e5360036119d0565b50565b610e5e611ad0565b600060066000848152602001908152602001600020604051806060016040529081600082015481526020016001820160009054906101000a900473ffffffffffffffffffffffffffffffffffffffff1673ffffffffffffffffffffffffffffffffffffffff1673ffffffffffffffffffffffffffffffffffffffff168152602001600282018054610eee906126c4565b80601f0160208091040260200160405190810160405280929190818152602001828054610f1a906126c4565b8015610f675780601f10610f3c57610100808354040283529160200191610f67565b820191906000526020600020905b815481529060010190602001808311610f4a57829003601f168201915b505050505081525050905080915050919050565b6000600460009054906101000a900473ffffffffffffffffffffffffffffffffffffffff16905090565b60026000541415610feb576040517f08c379a0000000000000000000000000000000000000000000000000000000008152600401610fe29061235b565b60405180910390fd5b600260008190555060006007600083815260200190815260200160002060040154905060006007600084815260200190815260200160002060010154905081670de0b6b3a76400003461103e9190612725565b1461107e576040517f08c379a0000000000000000000000000000000000000000000000000000000008152600401611075906127c8565b60405180910390fd5b6007600084815260200190815260200160002060020160009054906101000a900473ffffffffffffffffffffffffffffffffffffffff1673ffffffffffffffffffffffffffffffffffffffff166108fc349081150290604051600060405180830381858888f193505050501580156110fa573d6000803e3d6000fd5b506111053382610d4c565b336007600085815260200190815260200160002060030160006101000a81548173ffffffffffffffffffffffffffffffffffffffff021916908373ffffffffffffffffffffffffffffffffffffffff16021790555060016007600085815260200190815260200160002060050160006101000a81548160ff02191690831515021790555061119360036119d0565b600460009054906101000a900473ffffffffffffffffffffffffffffffffffffffff1673ffffffffffffffffffffffffffffffffffffffff166108fc6005549081150290604051600060405180830381858888f193505050501580156111fd573d6000803e3d6000fd5b507f18997191af6f9fee852b1908c76b304658d41c37f594ba0bd39bd3083095498e833460405161122f9291906127e8565b60405180910390a15050600160008190555050565b6060600061125260026119c2565b905060008060005b838110156112fb573373ffffffffffffffffffffffffffffffffffffffff166006600060018461128a9190612230565b815260200190815260200160002060010160009054906101000a900473ffffffffffffffffffffffffffffffffffffffff1673ffffffffffffffffffffffffffffffffffffffff1614156112e8576001836112e59190612230565b92505b80806112f3906122b5565b91505061125a565b5060008267ffffffffffffffff81111561131857611317611daa565b5b6040519080825280602002602001820160405280156113465781602001602082028036833780820191505090505b50905060005b8481101561143b573373ffffffffffffffffffffffffffffffffffffffff166006600060018461137c9190612230565b815260200190815260200160002060010160009054906101000a900473ffffffffffffffffffffffffffffffffffffffff1673ffffffffffffffffffffffffffffffffffffffff1614156114285760006001826113d99190612230565b90506000600660008381526020019081526020016000206000015490508084868151811061140a57611409612286565b5b6020026020010181815250506001856114239190612230565b945050505b8080611433906122b5565b91505061134c565b508094505050505090565b6060600061145460016119c2565b905060008060005b838110156114fd573373ffffffffffffffffffffffffffffffffffffffff166007600060018461148c9190612230565b815260200190815260200160002060020160009054906101000a900473ffffffffffffffffffffffffffffffffffffffff1673ffffffffffffffffffffffffffffffffffffffff1614156114ea576001836114e79190612230565b92505b80806114f5906122b5565b91505061145c565b5060008267ffffffffffffffff81111561151a57611519611daa565b5b60405190808252806020026020018201604052801561155357816020015b6115406119e6565b8152602001906001900390816115385790505b50905060005b84811015611733573373ffffffffffffffffffffffffffffffffffffffff16600760006001846115899190612230565b815260200190815260200160002060020160009054906101000a900473ffffffffffffffffffffffffffffffffffffffff1673ffffffffffffffffffffffffffffffffffffffff1614156117205760006001826115e69190612230565b90506000600760008381526020019081526020016000209050806040518060c001604052908160008201548152602001600182015481526020016002820160009054906101000a900473ffffffffffffffffffffffffffffffffffffffff1673ffffffffffffffffffffffffffffffffffffffff1673ffffffffffffffffffffffffffffffffffffffff1681526020016003820160009054906101000a900473ffffffffffffffffffffffffffffffffffffffff1673ffffffffffffffffffffffffffffffffffffffff1673ffffffffffffffffffffffffffffffffffffffff168152602001600482015481526020016005820160009054906101000a900460ff16151515158152505084868151811061170357611702612286565b5b602002602001018190525060018561171b9190612230565b945050505b808061172b906122b5565b915050611559565b508094505050505090565b6060600061174c60016119c2565b905060008060005b838110156117bb5760011515600760006001846117719190612230565b815260200190815260200160002060050160009054906101000a900460ff16151514156117a8576001836117a59190612230565b92505b80806117b3906122b5565b915050611754565b5060008267ffffffffffffffff8111156117d8576117d7611daa565b5b60405190808252806020026020018201604052801561181157816020015b6117fe6119e6565b8152602001906001900390816117f65790505b50905060005b848110156119b75760011515600760006001846118349190612230565b815260200190815260200160002060050160009054906101000a900460ff16151514156119a457600060018261186a9190612230565b90506000600760008381526020019081526020016000209050806040518060c001604052908160008201548152602001600182015481526020016002820160009054906101000a900473ffffffffffffffffffffffffffffffffffffffff1673ffffffffffffffffffffffffffffffffffffffff1673ffffffffffffffffffffffffffffffffffffffff1681526020016003820160009054906101000a900473ffffffffffffffffffffffffffffffffffffffff1673ffffffffffffffffffffffffffffffffffffffff1673ffffffffffffffffffffffffffffffffffffffff168152602001600482015481526020016005820160009054906101000a900460ff16151515158152505084868151811061198757611986612286565b5b602002602001018190525060018561199f9190612230565b945050505b80806119af906122b5565b915050611817565b508094505050505090565b600081600001549050919050565b6001816000016000828254019250508190555050565b6040518060c001604052806000815260200160008152602001600073ffffffffffffffffffffffffffffffffffffffff168152602001600073ffffffffffffffffffffffffffffffffffffffff168152602001600081526020016000151581525090565b828054611a56906126c4565b90600052602060002090601f016020900481019282611a785760008555611abf565b82601f10611a9157805160ff1916838001178555611abf565b82800160010185558215611abf579182015b82811115611abe578251825591602001919060010190611aa3565b5b509050611acc9190611b07565b5090565b604051806060016040528060008152602001600073ffffffffffffffffffffffffffffffffffffffff168152602001606081525090565b5b80821115611b20576000816000905550600101611b08565b5090565b600081519050919050565b600082825260208201905092915050565b6000819050602082019050919050565b6000819050919050565b611b6381611b50565b82525050565b600073ffffffffffffffffffffffffffffffffffffffff82169050919050565b6000611b9482611b69565b9050919050565b611ba481611b89565b82525050565b60008115159050919050565b611bbf81611baa565b82525050565b60c082016000820151611bdb6000850182611b5a565b506020820151611bee6020850182611b5a565b506040820151611c016040850182611b9b565b506060820151611c146060850182611b9b565b506080820151611c276080850182611b5a565b5060a0820151611c3a60a0850182611bb6565b50505050565b6000611c4c8383611bc5565b60c08301905092915050565b6000602082019050919050565b6000611c7082611b24565b611c7a8185611b2f565b9350611c8583611b40565b8060005b83811015611cb6578151611c9d8882611c40565b9750611ca883611c58565b925050600181019050611c89565b5085935050505092915050565b60006020820190508181036000830152611cdd8184611c65565b905092915050565b611cee81611b50565b82525050565b6000602082019050611d096000830184611ce5565b92915050565b6000604051905090565b600080fd5b600080fd5b611d2c81611b50565b8114611d3757600080fd5b50565b600081359050611d4981611d23565b92915050565b60008060408385031215611d6657611d65611d19565b5b6000611d7485828601611d3a565b9250506020611d8585828601611d3a565b9150509250929050565b600080fd5b600080fd5b6000601f19601f8301169050919050565b7f4e487b7100000000000000000000000000000000000000000000000000000000600052604160045260246000fd5b611de282611d99565b810181811067ffffffffffffffff82111715611e0157611e00611daa565b5b80604052505050565b6000611e14611d0f565b9050611e208282611dd9565b919050565b600067ffffffffffffffff821115611e4057611e3f611daa565b5b611e4982611d99565b9050602081019050919050565b82818337600083830152505050565b6000611e78611e7384611e25565b611e0a565b905082815260208101848484011115611e9457611e93611d94565b5b611e9f848285611e56565b509392505050565b600082601f830112611ebc57611ebb611d8f565b5b8135611ecc848260208601611e65565b91505092915050565b600060208284031215611eeb57611eea611d19565b5b600082013567ffffffffffffffff811115611f0957611f08611d1e565b5b611f1584828501611ea7565b91505092915050565b6000611f2982611b69565b9050919050565b611f3981611f1e565b8114611f4457600080fd5b50565b600081359050611f5681611f30565b92915050565b60008060408385031215611f7357611f72611d19565b5b6000611f8185828601611f47565b9250506020611f9285828601611d3a565b9150509250929050565b600060208284031215611fb257611fb1611d19565b5b6000611fc084828501611d3a565b91505092915050565b611fd281611f1e565b82525050565b600081519050919050565b600082825260208201905092915050565b60005b83811015612012578082015181840152602081019050611ff7565b83811115612021576000848401525b50505050565b600061203282611fd8565b61203c8185611fe3565b935061204c818560208601611ff4565b61205581611d99565b840191505092915050565b60006060830160008301516120786000860182611b5a565b50602083015161208b6020860182611fc9565b50604083015184820360408601526120a38282612027565b9150508091505092915050565b600060208201905081810360008301526120ca8184612060565b905092915050565b6120db81611f1e565b82525050565b60006020820190506120f660008301846120d2565b92915050565b600081519050919050565b600082825260208201905092915050565b6000819050602082019050919050565b60006121348383611b5a565b60208301905092915050565b6000602082019050919050565b6000612158826120fc565b6121628185612107565b935061216d83612118565b8060005b8381101561219e5781516121858882612128565b975061219083612140565b925050600181019050612171565b5085935050505092915050565b600060208201905081810360008301526121c5818461214d565b905092915050565b7f4e487b7100000000000000000000000000000000000000000000000000000000600052601160045260246000fd5b600061220782611b50565b915061221283611b50565b925082821015612225576122246121cd565b5b828203905092915050565b600061223b82611b50565b915061224683611b50565b9250827fffffffffffffffffffffffffffffffffffffffffffffffffffffffffffffffff0382111561227b5761227a6121cd565b5b828201905092915050565b7f4e487b7100000000000000000000000000000000000000000000000000000000600052603260045260246000fd5b60006122c082611b50565b91507fffffffffffffffffffffffffffffffffffffffffffffffffffffffffffffffff8214156122f3576122f26121cd565b5b600182019050919050565b600082825260208201905092915050565b7f5265656e7472616e637947756172643a207265656e7472616e742063616c6c00600082015250565b6000612345601f836122fe565b91506123508261230f565b602082019050919050565b6000602082019050818103600083015261237481612338565b9050919050565b7f5072696365206d757374206265206174206c6561737420312077656900000000600082015250565b60006123b1601c836122fe565b91506123bc8261237b565b602082019050919050565b600060208201905081810360008301526123e0816123a4565b9050919050565b7f5072696365206d75737420626520657175616c20746f206c697374696e67207060008201527f7269636500000000000000000000000000000000000000000000000000000000602082015250565b60006124436024836122fe565b915061244e826123e7565b604082019050919050565b6000602082019050818103600083015261247281612436565b9050919050565b7f7468652073656c6c6572206d75737420626520746865206f776e657200000000600082015250565b60006124af601c836122fe565b91506124ba82612479565b602082019050919050565b600060208201905081810360008301526124de816124a2565b9050919050565b6124ee81611baa565b82525050565b600060808201905061250960008301876120d2565b61251660208301866120d2565b6125236040830185611ce5565b61253060608301846124e5565b95945050505050565b600081905092915050565b600061254f82611fd8565b6125598185612539565b9350612569818560208601611ff4565b80840191505092915050565b60006125818284612544565b915081905092915050565b7f5468652070726f706572747920636f6e747261637420496420616c726561647960008201527f204578697374652c206974206d75737420626520756e69717565000000000000602082015250565b60006125e8603a836122fe565b91506125f38261258c565b604082019050919050565b60006020820190508181036000830152612617816125db565b9050919050565b600061262982611fd8565b61263381856122fe565b9350612643818560208601611ff4565b61264c81611d99565b840191505092915050565b600060608201905061266c6000830186611ce5565b61267960208301856120d2565b818103604083015261268b818461261e565b9050949350505050565b7f4e487b7100000000000000000000000000000000000000000000000000000000600052602260045260246000fd5b600060028204905060018216806126dc57607f821691505b602082108114156126f0576126ef612695565b5b50919050565b7f4e487b7100000000000000000000000000000000000000000000000000000000600052601260045260246000fd5b600061273082611b50565b915061273b83611b50565b92508261274b5761274a6126f6565b5b828204905092915050565b7f506c65617365207375626d6974207468652061736b696e67207072696365206960008201527f6e206f7264657220746f20636f6d706c65746520746865207075726368617365602082015250565b60006127b26040836122fe565b91506127bd82612756565b604082019050919050565b600060208201905081810360008301526127e1816127a5565b9050919050565b60006040820190506127fd6000830185611ce5565b61280a6020830184611ce5565b939250505056fea264697066735822122037bcd41dc8363b1d3bc75bd3bd491664429754d2e3cf538e11a661e2c4330fa564736f6c634300080a0033",
  "immutableReferences": {},
  "source": "// SPDX-License-Identifier: MIT\r\npragma solidity >=0.4.22 <0.9.0;\r\n\r\nimport \"@openzeppelin/contracts/utils/Counters.sol\";\r\nimport \"@openzeppelin/contracts/security/ReentrancyGuard.sol\";\r\n\r\ncontract NFTMarket is ReentrancyGuard {\r\n    using Counters for Counters.Counter;\r\n    Counters.Counter private _itemIds;\r\n    Counters.Counter private _tokenIds;\r\n    Counters.Counter private _itemsSold;\r\n    address payable owner;\r\n    uint256 listingPrice = 0.025 ether;\r\n\r\n    constructor() {\r\n        owner = payable(msg.sender);\r\n    }\r\n\r\n    //structs and mappings\r\n    struct property {\r\n        uint256 id;\r\n        address owner;\r\n        string propertycontractId;\r\n    }\r\n\r\n    mapping(uint256 => property) private _propertys;\r\n\r\n    struct MarketItem {\r\n        uint256 itemId;\r\n        uint256 tokenId;\r\n        address payable seller;\r\n        address payable owner;\r\n        uint256 price;\r\n        bool sold;\r\n    }\r\n\r\n    mapping(uint256 => MarketItem) private idToMarketItem;\r\n    mapping(string => bool) _propertycontractIdExiste;\r\n    //Events\r\n    event propertyCreated(uint256 id, address owner, string propertycontractId);\r\n    event MarketSaleCreated(uint256 itemId, uint256 price);\r\n    event MarketItemCreated(\r\n        uint256 indexed itemId,\r\n        uint256 indexed tokenId,\r\n        address seller,\r\n        address owner,\r\n        uint256 price,\r\n        bool sold\r\n    );\r\n\r\n    // functions\r\n    //function to create a new proprety\r\n    function createProprety(string memory _propertycontractId)\r\n        public\r\n        returns (uint256)\r\n    {\r\n        require(\r\n            !_propertycontractIdExiste[_propertycontractId],\r\n            \"The property contract Id already Existe, it must be unique\"\r\n        );\r\n\r\n        _tokenIds.increment();\r\n        uint256 newItemId = _tokenIds.current();\r\n        _propertys[newItemId] = property(\r\n            newItemId,\r\n            msg.sender,\r\n            _propertycontractId\r\n        );\r\n        _propertycontractIdExiste[_propertycontractId] = true;\r\n        emit propertyCreated(newItemId, msg.sender, _propertycontractId);\r\n        return newItemId;\r\n    }\r\n    /*getting property by id*/\r\n    function getPropretyByTokenId(uint256 id) public view returns(property memory) {\r\n        property memory item = _propertys[id];\r\n        return item;\r\n    }\r\n\r\n    function changeOwner(address newOwner, uint256 tokenId) public {\r\n        _propertys[tokenId].owner = newOwner;\r\n    }\r\n\r\n    /* Returns the listing price of the contract */\r\n    function getListingPrice() public view returns (uint256) {\r\n        return listingPrice;\r\n    }\r\n\r\n    function getOwner() public view returns (address) {\r\n        return owner;\r\n    }\r\n\r\n    /* Places an item for sale on the marketplace */\r\n    function createMarketItem(uint256 tokenId, uint256 price)\r\n        public\r\n        payable\r\n        nonReentrant\r\n    {\r\n        require(price > 0, \"Price must be at least 1 wei\");\r\n        require(\r\n            msg.value == listingPrice,\r\n            \"Price must be equal to listing price\"\r\n        );\r\n        require(\r\n            _propertys[tokenId].owner == msg.sender,\r\n            \"the seller must be the owner\"\r\n        );\r\n        _itemIds.increment();\r\n        uint256 itemId = _itemIds.current();\r\n\r\n        idToMarketItem[itemId] = MarketItem(\r\n            itemId,\r\n            tokenId,\r\n            payable(msg.sender),\r\n            payable(address(0)),\r\n            price,\r\n            false\r\n        );\r\n        changeOwner(address(this), tokenId);\r\n        emit MarketItemCreated(\r\n            itemId,\r\n            tokenId,\r\n            msg.sender,\r\n            address(0),\r\n            price,\r\n            false\r\n        );\r\n    }\r\n\r\n    /* Creates the sale of a marketplace item */\r\n    /* Transfers ownership of the item, as well as funds between parties */\r\n    function createMarketSale(uint256 itemId) public payable nonReentrant {\r\n        uint256 price = idToMarketItem[itemId].price;\r\n        uint256 tokenId = idToMarketItem[itemId].tokenId;\r\n        //convert from wei to eth\r\n        require(\r\n            (msg.value / 10**18) == price,\r\n            \"Please submit the asking price in order to complete the purchase\"\r\n        );\r\n        idToMarketItem[itemId].seller.transfer(msg.value);\r\n        changeOwner(msg.sender, tokenId);\r\n        idToMarketItem[itemId].owner = payable(msg.sender);\r\n        idToMarketItem[itemId].sold = true;\r\n        _itemsSold.increment();\r\n        payable(owner).transfer(listingPrice);\r\n        emit MarketSaleCreated(itemId, msg.value);\r\n    }\r\n\r\n    /* Returns all unsold market items */\r\n    function fetchMarketItems() public view returns (MarketItem[] memory) {\r\n        uint256 itemCount = _itemIds.current();\r\n        uint256 unsoldItemCount = _itemIds.current() - _itemsSold.current();\r\n        uint256 currentIndex = 0;\r\n\r\n        MarketItem[] memory items = new MarketItem[](unsoldItemCount);\r\n        for (uint256 i = 0; i < itemCount; i++) {\r\n            if (idToMarketItem[i + 1].owner == address(0)) {\r\n                uint256 currentId = i + 1;\r\n                MarketItem storage currentItem = idToMarketItem[currentId];\r\n                items[currentIndex] = currentItem;\r\n                currentIndex += 1;\r\n            }\r\n        }\r\n        return items;\r\n    }\r\n\r\n    /* Returns onlyl items that a user has purchased */\r\n    function fetchMyNFTs() public view returns (MarketItem[] memory) {\r\n        uint256 totalItemCount = _itemIds.current();\r\n        uint256 itemCount = 0;\r\n        uint256 currentIndex = 0;\r\n\r\n        for (uint256 i = 0; i < totalItemCount; i++) {\r\n            if (idToMarketItem[i + 1].owner == msg.sender) {\r\n                itemCount += 1;\r\n            }\r\n        }\r\n\r\n        MarketItem[] memory items = new MarketItem[](itemCount);\r\n        for (uint256 i = 0; i < totalItemCount; i++) {\r\n            if (idToMarketItem[i + 1].owner == msg.sender) {\r\n                uint256 currentId = i + 1;\r\n                MarketItem storage currentItem = idToMarketItem[currentId];\r\n                items[currentIndex] = currentItem;\r\n                currentIndex += 1;\r\n            }\r\n        }\r\n        return items;\r\n    }\r\n\r\n    function getOwnerPropretyIds() public view returns (uint256[] memory) {\r\n        uint256 totaltokenCount = _tokenIds.current();\r\n        uint256 itemCount = 0;\r\n        uint256 currentIndex = 0;\r\n\r\n        for (uint256 i = 0; i < totaltokenCount; i++) {\r\n            if (_propertys[i + 1].owner == msg.sender) {\r\n                itemCount += 1;\r\n            }\r\n        }\r\n\r\n        uint256[] memory owneIds = new uint256[](itemCount);\r\n        for (uint256 i = 0; i < totaltokenCount; i++) {\r\n            if (_propertys[i + 1].owner == msg.sender) {\r\n                uint256 currentId = i + 1;\r\n                uint256 currentOwnerPropretyId = _propertys[currentId].id;\r\n                owneIds[currentIndex] = currentOwnerPropretyId;\r\n                currentIndex += 1;\r\n            }\r\n        }\r\n        return owneIds;\r\n    }\r\n\r\n    function cancelMarketSell(uint256 itemId) public {\r\n        changeOwner(msg.sender, idToMarketItem[itemId].tokenId);\r\n        idToMarketItem[itemId].owner = payable(msg.sender);\r\n        idToMarketItem[itemId].sold = true;\r\n        _itemsSold.increment();\r\n    }\r\n\r\n    /* Returns only items a user has created */\r\n    function fetchItemsCreated() public view returns (MarketItem[] memory) {\r\n        uint256 totalItemCount = _itemIds.current();\r\n        uint256 itemCount = 0;\r\n        uint256 currentIndex = 0;\r\n\r\n        for (uint256 i = 0; i < totalItemCount; i++) {\r\n            if (idToMarketItem[i + 1].seller == msg.sender) {\r\n                itemCount += 1;\r\n            }\r\n        }\r\n\r\n        MarketItem[] memory items = new MarketItem[](itemCount);\r\n        for (uint256 i = 0; i < totalItemCount; i++) {\r\n            if (idToMarketItem[i + 1].seller == msg.sender) {\r\n                uint256 currentId = i + 1;\r\n                MarketItem storage currentItem = idToMarketItem[currentId];\r\n                items[currentIndex] = currentItem;\r\n                currentIndex += 1;\r\n            }\r\n        }\r\n        return items;\r\n    }\r\n\r\n    function displayAllTransactions()\r\n        public\r\n        view\r\n        returns (MarketItem[] memory)\r\n    {\r\n        uint256 totalItemCount = _itemIds.current();\r\n        uint256 itemCount = 0;\r\n        uint256 currentIndex = 0;\r\n\r\n        for (uint256 i = 0; i < totalItemCount; i++) {\r\n            if (idToMarketItem[i + 1].sold == true) {\r\n                itemCount += 1;\r\n            }\r\n        }\r\n\r\n        MarketItem[] memory items = new MarketItem[](itemCount);\r\n        for (uint256 i = 0; i < totalItemCount; i++) {\r\n            if (idToMarketItem[i + 1].sold == true) {\r\n                uint256 currentId = i + 1;\r\n                MarketItem storage currentItem = idToMarketItem[currentId];\r\n                items[currentIndex] = currentItem;\r\n                currentIndex += 1;\r\n            }\r\n        }\r\n        return items;\r\n    }\r\n}\r\n",
  "sourcePath": "C:\\Users\\Omar Ra\\Desktop\\Projet MarketPlace\\Front\\SmartContracts\\contracts\\NFTMarket.sol",
  "compiler": {
    "name": "solc",
    "version": "0.8.10+commit.fc410830.Emscripten.clang"
  },
  "schemaVersion": "3.4.4",
  "updatedAt": "2022-02-07T22:05:45.074Z",
  "networkType": "ethereum",
  "devdoc": {
    "kind": "dev",
    "methods": {},
    "version": 1
  },
  "userdoc": {
    "kind": "user",
    "methods": {},
    "version": 1
  }
}