{
  "contractName": "NFTMarket",
  "abi": [
    {
      "inputs": [],
      "stateMutability": "nonpayable",
      "type": "constructor"
    },
    {
      "anonymous": false,
      "inputs": [
        {
          "indexed": true,
          "internalType": "uint256",
          "name": "itemId",
          "type": "uint256"
        },
        {
          "indexed": true,
          "internalType": "address",
          "name": "nftContract",
          "type": "address"
        },
        {
          "indexed": true,
          "internalType": "uint256",
          "name": "tokenId",
          "type": "uint256"
        },
        {
          "indexed": false,
          "internalType": "address",
          "name": "seller",
          "type": "address"
        },
        {
          "indexed": false,
          "internalType": "address",
          "name": "owner",
          "type": "address"
        },
        {
          "indexed": false,
          "internalType": "uint256",
          "name": "price",
          "type": "uint256"
        },
        {
          "indexed": false,
          "internalType": "bool",
          "name": "sold",
          "type": "bool"
        }
      ],
      "name": "MarketItemCreated",
      "type": "event"
    },
    {
      "anonymous": false,
      "inputs": [
        {
          "indexed": false,
          "internalType": "uint256",
          "name": "itemId",
          "type": "uint256"
        },
        {
          "indexed": false,
          "internalType": "uint256",
          "name": "price",
          "type": "uint256"
        }
      ],
      "name": "MarketSaleCreated",
      "type": "event"
    },
    {
      "inputs": [],
      "name": "getListingPrice",
      "outputs": [
        {
          "internalType": "uint256",
          "name": "",
          "type": "uint256"
        }
      ],
      "stateMutability": "view",
      "type": "function",
      "constant": true
    },
    {
      "inputs": [],
      "name": "getOwner",
      "outputs": [
        {
          "internalType": "address",
          "name": "",
          "type": "address"
        }
      ],
      "stateMutability": "view",
      "type": "function",
      "constant": true
    },
    {
      "inputs": [
        {
          "internalType": "address",
          "name": "nftContract",
          "type": "address"
        },
        {
          "internalType": "uint256",
          "name": "tokenId",
          "type": "uint256"
        },
        {
          "internalType": "uint256",
          "name": "price",
          "type": "uint256"
        }
      ],
      "name": "createMarketItem",
      "outputs": [],
      "stateMutability": "payable",
      "type": "function",
      "payable": true
    },
    {
      "inputs": [
        {
          "internalType": "address",
          "name": "nftContract",
          "type": "address"
        },
        {
          "internalType": "uint256",
          "name": "itemId",
          "type": "uint256"
        }
      ],
      "name": "createMarketSale",
      "outputs": [],
      "stateMutability": "payable",
      "type": "function",
      "payable": true
    },
    {
      "inputs": [],
      "name": "fetchMarketItems",
      "outputs": [
        {
          "components": [
            {
              "internalType": "uint256",
              "name": "itemId",
              "type": "uint256"
            },
            {
              "internalType": "address",
              "name": "nftContract",
              "type": "address"
            },
            {
              "internalType": "uint256",
              "name": "tokenId",
              "type": "uint256"
            },
            {
              "internalType": "address payable",
              "name": "seller",
              "type": "address"
            },
            {
              "internalType": "address payable",
              "name": "owner",
              "type": "address"
            },
            {
              "internalType": "uint256",
              "name": "price",
              "type": "uint256"
            },
            {
              "internalType": "bool",
              "name": "sold",
              "type": "bool"
            }
          ],
          "internalType": "struct NFTMarket.MarketItem[]",
          "name": "",
          "type": "tuple[]"
        }
      ],
      "stateMutability": "view",
      "type": "function",
      "constant": true
    },
    {
      "inputs": [],
      "name": "fetchMyNFTs",
      "outputs": [
        {
          "components": [
            {
              "internalType": "uint256",
              "name": "itemId",
              "type": "uint256"
            },
            {
              "internalType": "address",
              "name": "nftContract",
              "type": "address"
            },
            {
              "internalType": "uint256",
              "name": "tokenId",
              "type": "uint256"
            },
            {
              "internalType": "address payable",
              "name": "seller",
              "type": "address"
            },
            {
              "internalType": "address payable",
              "name": "owner",
              "type": "address"
            },
            {
              "internalType": "uint256",
              "name": "price",
              "type": "uint256"
            },
            {
              "internalType": "bool",
              "name": "sold",
              "type": "bool"
            }
          ],
          "internalType": "struct NFTMarket.MarketItem[]",
          "name": "",
          "type": "tuple[]"
        }
      ],
      "stateMutability": "view",
      "type": "function",
      "constant": true
    },
    {
      "inputs": [],
      "name": "fetchItemsCreated",
      "outputs": [
        {
          "components": [
            {
              "internalType": "uint256",
              "name": "itemId",
              "type": "uint256"
            },
            {
              "internalType": "address",
              "name": "nftContract",
              "type": "address"
            },
            {
              "internalType": "uint256",
              "name": "tokenId",
              "type": "uint256"
            },
            {
              "internalType": "address payable",
              "name": "seller",
              "type": "address"
            },
            {
              "internalType": "address payable",
              "name": "owner",
              "type": "address"
            },
            {
              "internalType": "uint256",
              "name": "price",
              "type": "uint256"
            },
            {
              "internalType": "bool",
              "name": "sold",
              "type": "bool"
            }
          ],
          "internalType": "struct NFTMarket.MarketItem[]",
          "name": "",
          "type": "tuple[]"
        }
      ],
      "stateMutability": "view",
      "type": "function",
      "constant": true
    }
  ],
  "bytecode": "0x60806040526658d15e1762800060045534801561001b57600080fd5b50600160008190555033600360006101000a81548173ffffffffffffffffffffffffffffffffffffffff021916908373ffffffffffffffffffffffffffffffffffffffff160217905550611a1c806100746000396000f3fe6080604052600436106100705760003560e01c806358eb2df51161004e57806358eb2df5146100f6578063893d20e814610112578063c23b139e1461013d578063f064c32e1461015957610070565b80630f08efe01461007557806312e85585146100a0578063202e3740146100cb575b600080fd5b34801561008157600080fd5b5061008a610184565b60405161009791906113ff565b60405180910390f35b3480156100ac57600080fd5b506100b561044e565b6040516100c29190611430565b60405180910390f35b3480156100d757600080fd5b506100e0610458565b6040516100ed91906113ff565b60405180910390f35b610110600480360381019061010b91906114a8565b6107a6565b005b34801561011e57600080fd5b50610127610b0a565b604051610134919061150a565b60405180910390f35b61015760048036038101906101529190611525565b610b34565b005b34801561016557600080fd5b5061016e610e39565b60405161017b91906113ff565b60405180910390f35b606060006101926001611187565b905060006101a06002611187565b6101aa6001611187565b6101b49190611594565b90506000808267ffffffffffffffff8111156101d3576101d26115c8565b5b60405190808252806020026020018201604052801561020c57816020015b6101f96111ab565b8152602001906001900390816101f15790505b50905060005b8481101561044357600073ffffffffffffffffffffffffffffffffffffffff166005600060018461024391906115f7565b815260200190815260200160002060040160009054906101000a900473ffffffffffffffffffffffffffffffffffffffff1673ffffffffffffffffffffffffffffffffffffffff1614156104305760006001826102a091906115f7565b90506000600560008381526020019081526020016000209050806040518060e0016040529081600082015481526020016001820160009054906101000a900473ffffffffffffffffffffffffffffffffffffffff1673ffffffffffffffffffffffffffffffffffffffff1673ffffffffffffffffffffffffffffffffffffffff168152602001600282015481526020016003820160009054906101000a900473ffffffffffffffffffffffffffffffffffffffff1673ffffffffffffffffffffffffffffffffffffffff1673ffffffffffffffffffffffffffffffffffffffff1681526020016004820160009054906101000a900473ffffffffffffffffffffffffffffffffffffffff1673ffffffffffffffffffffffffffffffffffffffff1673ffffffffffffffffffffffffffffffffffffffff168152602001600582015481526020016006820160009054906101000a900460ff1615151515815250508486815181106104135761041261164d565b5b602002602001018190525060018561042b91906115f7565b945050505b808061043b9061167c565b915050610212565b508094505050505090565b6000600454905090565b606060006104666001611187565b905060008060005b8381101561050f573373ffffffffffffffffffffffffffffffffffffffff166005600060018461049e91906115f7565b815260200190815260200160002060040160009054906101000a900473ffffffffffffffffffffffffffffffffffffffff1673ffffffffffffffffffffffffffffffffffffffff1614156104fc576001836104f991906115f7565b92505b80806105079061167c565b91505061046e565b5060008267ffffffffffffffff81111561052c5761052b6115c8565b5b60405190808252806020026020018201604052801561056557816020015b6105526111ab565b81526020019060019003908161054a5790505b50905060005b8481101561079b573373ffffffffffffffffffffffffffffffffffffffff166005600060018461059b91906115f7565b815260200190815260200160002060040160009054906101000a900473ffffffffffffffffffffffffffffffffffffffff1673ffffffffffffffffffffffffffffffffffffffff1614156107885760006001826105f891906115f7565b90506000600560008381526020019081526020016000209050806040518060e0016040529081600082015481526020016001820160009054906101000a900473ffffffffffffffffffffffffffffffffffffffff1673ffffffffffffffffffffffffffffffffffffffff1673ffffffffffffffffffffffffffffffffffffffff168152602001600282015481526020016003820160009054906101000a900473ffffffffffffffffffffffffffffffffffffffff1673ffffffffffffffffffffffffffffffffffffffff1673ffffffffffffffffffffffffffffffffffffffff1681526020016004820160009054906101000a900473ffffffffffffffffffffffffffffffffffffffff1673ffffffffffffffffffffffffffffffffffffffff1673ffffffffffffffffffffffffffffffffffffffff168152602001600582015481526020016006820160009054906101000a900460ff16151515158152505084868151811061076b5761076a61164d565b5b602002602001018190525060018561078391906115f7565b945050505b80806107939061167c565b91505061056b565b508094505050505090565b600260005414156107ec576040517f08c379a00000000000000000000000000000000000000000000000000000000081526004016107e390611722565b60405180910390fd5b600260008190555060008111610837576040517f08c379a000000000000000000000000000000000000000000000000000000000815260040161082e9061178e565b60405180910390fd5b600454341461087b576040517f08c379a000000000000000000000000000000000000000000000000000000000815260040161087290611820565b60405180910390fd5b6108856001611195565b60006108916001611187565b90506040518060e001604052808281526020018573ffffffffffffffffffffffffffffffffffffffff1681526020018481526020013373ffffffffffffffffffffffffffffffffffffffff168152602001600073ffffffffffffffffffffffffffffffffffffffff16815260200183815260200160001515815250600560008381526020019081526020016000206000820151816000015560208201518160010160006101000a81548173ffffffffffffffffffffffffffffffffffffffff021916908373ffffffffffffffffffffffffffffffffffffffff1602179055506040820151816002015560608201518160030160006101000a81548173ffffffffffffffffffffffffffffffffffffffff021916908373ffffffffffffffffffffffffffffffffffffffff16021790555060808201518160040160006101000a81548173ffffffffffffffffffffffffffffffffffffffff021916908373ffffffffffffffffffffffffffffffffffffffff16021790555060a0820151816005015560c08201518160060160006101000a81548160ff0219169083151502179055509050508373ffffffffffffffffffffffffffffffffffffffff166323b872dd3330866040518463ffffffff1660e01b8152600401610a7293929190611840565b600060405180830381600087803b158015610a8c57600080fd5b505af1158015610aa0573d6000803e3d6000fd5b50505050828473ffffffffffffffffffffffffffffffffffffffff16827f045dfa01dcba2b36aba1d3dc4a874f4b0c5d2fbeb8d2c4b34a7d88c8d8f929d1336000876000604051610af49493929190611886565b60405180910390a4506001600081905550505050565b6000600360009054906101000a900473ffffffffffffffffffffffffffffffffffffffff16905090565b60026000541415610b7a576040517f08c379a0000000000000000000000000000000000000000000000000000000008152600401610b7190611722565b60405180910390fd5b600260008190555060006005600083815260200190815260200160002060050154905060006005600084815260200190815260200160002060020154905081670de0b6b3a764000034610bcd91906118fa565b14610c0d576040517f08c379a0000000000000000000000000000000000000000000000000000000008152600401610c049061199d565b60405180910390fd5b6005600084815260200190815260200160002060030160009054906101000a900473ffffffffffffffffffffffffffffffffffffffff1673ffffffffffffffffffffffffffffffffffffffff166108fc349081150290604051600060405180830381858888f19350505050158015610c89573d6000803e3d6000fd5b508373ffffffffffffffffffffffffffffffffffffffff166323b872dd3033846040518463ffffffff1660e01b8152600401610cc793929190611840565b600060405180830381600087803b158015610ce157600080fd5b505af1158015610cf5573d6000803e3d6000fd5b50505050336005600085815260200190815260200160002060040160006101000a81548173ffffffffffffffffffffffffffffffffffffffff021916908373ffffffffffffffffffffffffffffffffffffffff16021790555060016005600085815260200190815260200160002060060160006101000a81548160ff021916908315150217905550610d876002611195565b600360009054906101000a900473ffffffffffffffffffffffffffffffffffffffff1673ffffffffffffffffffffffffffffffffffffffff166108fc6004549081150290604051600060405180830381858888f19350505050158015610df1573d6000803e3d6000fd5b507f18997191af6f9fee852b1908c76b304658d41c37f594ba0bd39bd3083095498e8334604051610e239291906119bd565b60405180910390a1505060016000819055505050565b60606000610e476001611187565b905060008060005b83811015610ef0573373ffffffffffffffffffffffffffffffffffffffff1660056000600184610e7f91906115f7565b815260200190815260200160002060030160009054906101000a900473ffffffffffffffffffffffffffffffffffffffff1673ffffffffffffffffffffffffffffffffffffffff161415610edd57600183610eda91906115f7565b92505b8080610ee89061167c565b915050610e4f565b5060008267ffffffffffffffff811115610f0d57610f0c6115c8565b5b604051908082528060200260200182016040528015610f4657816020015b610f336111ab565b815260200190600190039081610f2b5790505b50905060005b8481101561117c573373ffffffffffffffffffffffffffffffffffffffff1660056000600184610f7c91906115f7565b815260200190815260200160002060030160009054906101000a900473ffffffffffffffffffffffffffffffffffffffff1673ffffffffffffffffffffffffffffffffffffffff161415611169576000600182610fd991906115f7565b90506000600560008381526020019081526020016000209050806040518060e0016040529081600082015481526020016001820160009054906101000a900473ffffffffffffffffffffffffffffffffffffffff1673ffffffffffffffffffffffffffffffffffffffff1673ffffffffffffffffffffffffffffffffffffffff168152602001600282015481526020016003820160009054906101000a900473ffffffffffffffffffffffffffffffffffffffff1673ffffffffffffffffffffffffffffffffffffffff1673ffffffffffffffffffffffffffffffffffffffff1681526020016004820160009054906101000a900473ffffffffffffffffffffffffffffffffffffffff1673ffffffffffffffffffffffffffffffffffffffff1673ffffffffffffffffffffffffffffffffffffffff168152602001600582015481526020016006820160009054906101000a900460ff16151515158152505084868151811061114c5761114b61164d565b5b602002602001018190525060018561116491906115f7565b945050505b80806111749061167c565b915050610f4c565b508094505050505090565b600081600001549050919050565b6001816000016000828254019250508190555050565b6040518060e0016040528060008152602001600073ffffffffffffffffffffffffffffffffffffffff16815260200160008152602001600073ffffffffffffffffffffffffffffffffffffffff168152602001600073ffffffffffffffffffffffffffffffffffffffff168152602001600081526020016000151581525090565b600081519050919050565b600082825260208201905092915050565b6000819050602082019050919050565b6000819050919050565b61126b81611258565b82525050565b600073ffffffffffffffffffffffffffffffffffffffff82169050919050565b600061129c82611271565b9050919050565b6112ac81611291565b82525050565b60006112bd82611271565b9050919050565b6112cd816112b2565b82525050565b60008115159050919050565b6112e8816112d3565b82525050565b60e0820160008201516113046000850182611262565b50602082015161131760208501826112a3565b50604082015161132a6040850182611262565b50606082015161133d60608501826112c4565b50608082015161135060808501826112c4565b5060a082015161136360a0850182611262565b5060c082015161137660c08501826112df565b50505050565b600061138883836112ee565b60e08301905092915050565b6000602082019050919050565b60006113ac8261122c565b6113b68185611237565b93506113c183611248565b8060005b838110156113f25781516113d9888261137c565b97506113e483611394565b9250506001810190506113c5565b5085935050505092915050565b6000602082019050818103600083015261141981846113a1565b905092915050565b61142a81611258565b82525050565b60006020820190506114456000830184611421565b92915050565b600080fd5b61145981611291565b811461146457600080fd5b50565b60008135905061147681611450565b92915050565b61148581611258565b811461149057600080fd5b50565b6000813590506114a28161147c565b92915050565b6000806000606084860312156114c1576114c061144b565b5b60006114cf86828701611467565b93505060206114e086828701611493565b92505060406114f186828701611493565b9150509250925092565b61150481611291565b82525050565b600060208201905061151f60008301846114fb565b92915050565b6000806040838503121561153c5761153b61144b565b5b600061154a85828601611467565b925050602061155b85828601611493565b9150509250929050565b7f4e487b7100000000000000000000000000000000000000000000000000000000600052601160045260246000fd5b600061159f82611258565b91506115aa83611258565b9250828210156115bd576115bc611565565b5b828203905092915050565b7f4e487b7100000000000000000000000000000000000000000000000000000000600052604160045260246000fd5b600061160282611258565b915061160d83611258565b9250827fffffffffffffffffffffffffffffffffffffffffffffffffffffffffffffffff0382111561164257611641611565565b5b828201905092915050565b7f4e487b7100000000000000000000000000000000000000000000000000000000600052603260045260246000fd5b600061168782611258565b91507fffffffffffffffffffffffffffffffffffffffffffffffffffffffffffffffff8214156116ba576116b9611565565b5b600182019050919050565b600082825260208201905092915050565b7f5265656e7472616e637947756172643a207265656e7472616e742063616c6c00600082015250565b600061170c601f836116c5565b9150611717826116d6565b602082019050919050565b6000602082019050818103600083015261173b816116ff565b9050919050565b7f5072696365206d757374206265206174206c6561737420312077656900000000600082015250565b6000611778601c836116c5565b915061178382611742565b602082019050919050565b600060208201905081810360008301526117a78161176b565b9050919050565b7f5072696365206d75737420626520657175616c20746f206c697374696e67207060008201527f7269636500000000000000000000000000000000000000000000000000000000602082015250565b600061180a6024836116c5565b9150611815826117ae565b604082019050919050565b60006020820190508181036000830152611839816117fd565b9050919050565b600060608201905061185560008301866114fb565b61186260208301856114fb565b61186f6040830184611421565b949350505050565b611880816112d3565b82525050565b600060808201905061189b60008301876114fb565b6118a860208301866114fb565b6118b56040830185611421565b6118c26060830184611877565b95945050505050565b7f4e487b7100000000000000000000000000000000000000000000000000000000600052601260045260246000fd5b600061190582611258565b915061191083611258565b9250826119205761191f6118cb565b5b828204905092915050565b7f506c65617365207375626d6974207468652061736b696e67207072696365206960008201527f6e206f7264657220746f20636f6d706c65746520746865207075726368617365602082015250565b60006119876040836116c5565b91506119928261192b565b604082019050919050565b600060208201905081810360008301526119b68161197a565b9050919050565b60006040820190506119d26000830185611421565b6119df6020830184611421565b939250505056fea2646970667358221220267c5912943b3b49c8bf293e1ef872b876b2a146058363a5c92f69f618a650e864736f6c634300080a0033",
  "immutableReferences": {},
  "source": "// SPDX-License-Identifier: MIT\r\npragma solidity >=0.4.22 <0.9.0;\r\n\r\nimport \"@openzeppelin/contracts/token/ERC721/ERC721.sol\";\r\nimport \"@openzeppelin/contracts/utils/Counters.sol\";\r\nimport \"@openzeppelin/contracts/security/ReentrancyGuard.sol\";\r\n\r\ncontract NFTMarket is ReentrancyGuard {\r\n    using Counters for Counters.Counter;\r\n    Counters.Counter private _itemIds;\r\n    Counters.Counter private _itemsSold;\r\n    address payable owner;\r\n    uint256 listingPrice = 0.025 ether;\r\n\r\n    constructor() {\r\n        owner = payable(msg.sender);\r\n    }\r\n\r\n    struct MarketItem {\r\n        uint256 itemId;\r\n        address nftContract;\r\n        uint256 tokenId;\r\n        address payable seller;\r\n        address payable owner;\r\n        uint256 price;\r\n        bool sold;\r\n    }\r\n\r\n    mapping(uint256 => MarketItem) private idToMarketItem;\r\n\r\n    event MarketItemCreated(\r\n        uint256 indexed itemId,\r\n        address indexed nftContract,\r\n        uint256 indexed tokenId,\r\n        address seller,\r\n        address owner,\r\n        uint256 price,\r\n        bool sold\r\n    );\r\n\r\n    event MarketSaleCreated(uint256 itemId, uint256 price);\r\n\r\n    /* Returns the listing price of the contract */\r\n    function getListingPrice() public view returns (uint256) {\r\n        return listingPrice;\r\n    }\r\n\r\n    function getOwner() public view returns (address) {\r\n        return owner;\r\n    }\r\n\r\n    /* Places an item for sale on the marketplace */\r\n    function createMarketItem(\r\n        address nftContract,\r\n        uint256 tokenId,\r\n        uint256 price\r\n    ) public payable nonReentrant {\r\n        require(price > 0, \"Price must be at least 1 wei\");\r\n        require(\r\n            msg.value == listingPrice,\r\n            \"Price must be equal to listing price\"\r\n        );\r\n\r\n        _itemIds.increment();\r\n        uint256 itemId = _itemIds.current();\r\n\r\n        idToMarketItem[itemId] = MarketItem(\r\n            itemId,\r\n            nftContract,\r\n            tokenId,\r\n            payable(msg.sender),\r\n            payable(address(0)),\r\n            price,\r\n            false\r\n        );\r\n\r\n        IERC721(nftContract).transferFrom(msg.sender, address(this), tokenId);\r\n\r\n        emit MarketItemCreated(\r\n            itemId,\r\n            nftContract,\r\n            tokenId,\r\n            msg.sender,\r\n            address(0),\r\n            price,\r\n            false\r\n        );\r\n    }\r\n\r\n    /* Creates the sale of a marketplace item */\r\n    /* Transfers ownership of the item, as well as funds between parties */\r\n    function createMarketSale(address nftContract, uint256 itemId)\r\n        public\r\n        payable\r\n        nonReentrant\r\n    {\r\n        uint256 price = idToMarketItem[itemId].price;\r\n        uint256 tokenId = idToMarketItem[itemId].tokenId;\r\n        require(\r\n            (msg.value/10**18) == price,\r\n            \"Please submit the asking price in order to complete the purchase\"\r\n        );\r\n        //uint256 amount = msg.value ether;\r\n        idToMarketItem[itemId].seller.transfer(msg.value);\r\n        IERC721(nftContract).transferFrom(address(this), msg.sender, tokenId);\r\n        idToMarketItem[itemId].owner = payable(msg.sender);\r\n        idToMarketItem[itemId].sold = true;\r\n        _itemsSold.increment();\r\n        payable(owner).transfer(listingPrice);\r\n        emit MarketSaleCreated(\r\n            itemId,\r\n            msg.value\r\n        );\r\n    }\r\n\r\n    /* Returns all unsold market items */\r\n    function fetchMarketItems() public view returns (MarketItem[] memory) {\r\n        uint256 itemCount = _itemIds.current();\r\n        uint256 unsoldItemCount = _itemIds.current() - _itemsSold.current();\r\n        uint256 currentIndex = 0;\r\n\r\n        MarketItem[] memory items = new MarketItem[](unsoldItemCount);\r\n        for (uint256 i = 0; i < itemCount; i++) {\r\n            if (idToMarketItem[i + 1].owner == address(0)) {\r\n                uint256 currentId = i + 1;\r\n                MarketItem storage currentItem = idToMarketItem[currentId];\r\n                items[currentIndex] = currentItem;\r\n                currentIndex += 1;\r\n            }\r\n        }\r\n        return items;\r\n    }\r\n\r\n    /* Returns onlyl items that a user has purchased */\r\n    function fetchMyNFTs() public view returns (MarketItem[] memory) {\r\n        uint256 totalItemCount = _itemIds.current();\r\n        uint256 itemCount = 0;\r\n        uint256 currentIndex = 0;\r\n\r\n        for (uint256 i = 0; i < totalItemCount; i++) {\r\n            if (idToMarketItem[i + 1].owner == msg.sender) {\r\n                itemCount += 1;\r\n            }\r\n        }\r\n\r\n        MarketItem[] memory items = new MarketItem[](itemCount);\r\n        for (uint256 i = 0; i < totalItemCount; i++) {\r\n            if (idToMarketItem[i + 1].owner == msg.sender) {\r\n                uint256 currentId = i + 1;\r\n                MarketItem storage currentItem = idToMarketItem[currentId];\r\n                items[currentIndex] = currentItem;\r\n                currentIndex += 1;\r\n            }\r\n        }\r\n        return items;\r\n    }\r\n\r\n    /* Returns only items a user has created */\r\n    function fetchItemsCreated() public view returns (MarketItem[] memory) {\r\n        uint256 totalItemCount = _itemIds.current();\r\n        uint256 itemCount = 0;\r\n        uint256 currentIndex = 0;\r\n\r\n        for (uint256 i = 0; i < totalItemCount; i++) {\r\n            if (idToMarketItem[i + 1].seller == msg.sender) {\r\n                itemCount += 1;\r\n            }\r\n        }\r\n\r\n        MarketItem[] memory items = new MarketItem[](itemCount);\r\n        for (uint256 i = 0; i < totalItemCount; i++) {\r\n            if (idToMarketItem[i + 1].seller == msg.sender) {\r\n                uint256 currentId = i + 1;\r\n                MarketItem storage currentItem = idToMarketItem[currentId];\r\n                items[currentIndex] = currentItem;\r\n                currentIndex += 1;\r\n            }\r\n        }\r\n        return items;\r\n    }\r\n}\r\n",
  "sourcePath": "C:\\Users\\Omar Ra\\Desktop\\Front\\SmartContracts\\contracts\\NFTMarket.sol",
  "compiler": {
    "name": "solc",
    "version": "0.8.10+commit.fc410830.Emscripten.clang"
  },
  "schemaVersion": "3.4.4",
  "updatedAt": "2022-01-05T16:34:49.637Z",
  "networkType": "ethereum",
  "devdoc": {
    "kind": "dev",
    "methods": {},
    "version": 1
  },
  "userdoc": {
    "kind": "user",
    "methods": {},
    "version": 1
  }
}